:100000000C94A3010C94D4010C94D4010C94D4014D
:100010000C94D4010C94D4010C94D4010C94D4010C
:100020000C94D4010C94D4010C94D4010C94D401FC
:100030000C94D4010C94D4010C94D4010C94D401EC
:100040000C94D4010C94D4010C94D4010C94D401DC
:100050000C94D4010C94D4010C94D4010C940F147E
:100060000C94D4010C9483140C9459140C94D40162
:100070000C94D4010C94D4010C94D4010C94D401AC
:100080000C94D4010C94D4010C94D4010C94D4019C
:100090000C94D4010C94D4010C94D4010C94D4018C
:1000A0000C94D4010C94D4010C94D4010C94D4017C
:1000B0000C94D4010C94D4010C94D4010C94D4016C
:1000C0000C94D4010C94D4010C94D4010C94D4015C
:1000D0000C94D4010C94D4010C94D4010C94D4014C
:1000E0000C94D4010C9461040C943D130C942402E0
:1000F0000C94AD050C9470020C9427060C945A02D3
:100100000C9401040C9404040C9468020C941904DB
:100110000C94DE030C94F8040C94C0050C94430674
:100120000C942D060C94A5020C94FA020C9438063B
:100130000C94FE030C949E050C94B9140C94D805F1
:100140000C9454020C949A060C9450060C942902B8
:100150000C945B060C943F130C941A060C943B020F
:100160000C9462020C943B130C9488130C945E0262
:100170000C943F020C94E6020C9446040C94C904BF
:100180000C9425050C94DF030C947B040C947406EA
:100190000C9408030C9443020C940C070C94760204
:1001A0000C944A020C9447020C94A8020C949206F8
:1001B0000C94C8070C9474050C948E040C94A6043B
:1001C0000C940F060C94AA020C94DA070C94CD0739
:1001D0000C94C3050C948F060C9491040C94850622
:1001E0000C944C040C9449040C947C060C94CA1393
:1001F0000C946E060C94FD030C9471060C94500242
:100200000C94F5040C94E7050C9405040C94EA1284
:100210000C946C020C9440030C9433040C942A0646
:100220000C94F2030C94FA050C946B070C940807D9
:100230000C947A020C9448050C948D030C9464067B
:100240000C94FB040C94D702F9080000FC08000091
:10025000FF080000480203000000220025002800DB
:100260002B002E00310034000201000005010801BE
:100270000B0105050505070508080808020202022A
:100280000A0A080804040404010101010101010132
:100290000303030303030303040707070C0C0C0CFD
:1002A0000C0C0C0C020202020606060606060606E6
:1002B0000B0B0B0B0B0B0B0B010210202008081073
:1002C00020401020408002010201080402010102C6
:1002D000040810204080804020100804020180049F
:1002E00002018040201008040201080402010102FA
:1002F0000408102040800102040810204080000003
:100300000A0B02090C0D0E0807030401000000008F
:1003100000000000000000000000000000000000DD
:10032000000000000000000000001211100000009A
:1003300000000000000000000000000000000000BD
:1003400000000000B91411241FBECFEFDFEFDEBFA5
:10035000CDBF00E00CBF15E0A0E0B2E0EEECF7E3AB
:1003600000E00BBF02C007900D92AA33B107D9F786
:1003700029E0AAE3B5E001C01D92A532B207E1F77A
:1003800011E0C3EAD1E000E006C021970109802F07
:10039000FE010E94EF19C23AD10780E00807A9F7D1
:1003A0000E9429150C94E51B0C94000040915608FE
:1003B00050915708E6E5F7E081E090E042305105C2
:1003C00030F410925708109256080895C9012181FF
:1003D00021939C012F5F3F4F42175307B9F790932A
:1003E0005708809356080895282F30E0F901E2500D
:1003F000FD4F9491F901E854FD4F44912E583D4F23
:10040000F9012491222309F435C0992311F1915067
:100410009231F8F4E92FF0E08827EE5EFD4F8F4F20
:100420000C94EF194302470224023B023F022902C7
:100430004A02500254025A025E02620268026C02D0
:100440002902700276027A02809180008F77809371
:100450008000E22FF0E0EE0FFF1FE85AFD4FA5915C
:10046000B4918FB7F894EC91611148C040954E2338
:100470004C938FBF0895809180008F7DE8CF80914D
:100480008000877FE4CF84B58F7784BDE2CF84B5C9
:100490008F7DFBCF8091B0008F778093B000D9CF54
:1004A0008091B0008F7DF9CF809190008F778093FD
:1004B0009000CFCF809190008F7DF9CF80919000F8
:1004C000877FF5CF8091A0008F778093A000C1CF68
:1004D0008091A0008F7DF9CF8091A000877FF5CF1C
:1004E000809120018F7780932001B3CF80912001EC
:1004F0008F7DF9CF80912001877FF5CF4E2BB8CF2C
:100500003FB7F8948091520790915307A0915407F8
:10051000B091550726B5A89B05C02F3F19F001964D
:10052000A11DB11D3FBFBA2FA92F982F8827BC014D
:10053000CD01620F711D811D911D42E0660F771F75
:10054000881F991F4A95D1F7089581E090E008959A
:1005500084960895AF92BF92CF92DF92EF92FF926E
:100560000F931F93CF93DF936C017B018B01040FDB
:10057000151FEB015E01AE18BF08C017D10759F077
:100580006991D601ED91FC910190F081E02DC601B9
:100590001995892B79F7C501DF91CF911F910F91A3
:1005A000FF90EF90DF90CF90BF90AF900895FC0147
:1005B000538D448D252F30E0842F90E0821B930BC8
:1005C000541710F0CF96089501970895FC01918D6E
:1005D000828D981761F0A28DAE0FBF2FB11D5D9671
:1005E0008C91928D9F5F9F73928F90E008958FEF13
:1005F0009FEF0895FC01918D828D981731F0828DC7
:10060000E80FF11D858D90E008958FEF9FEF08951D
:10061000FC01918D228D892F90E0805C9F4F821B81
:1006200091098F739927089588E598E00E9408033F
:1006300021E0892B09F420E0822F0895FC01A48D8C
:10064000A80FB92FB11DA35ABF4F2C91848D90E0F4
:1006500001968F739927848FA689B7892C93A089D7
:10066000B1898C91837080648C93938D848D981361
:1006700006C00288F389E02D80818F7D80830895F4
:10068000EF92FF920F931F93CF93DF93EC0181E0E2
:10069000888F9B8D8C8D98131AC0E889F989808189
:1006A00085FF15C09FB7F894EE89FF896083E889BC
:1006B000F98980818370806480839FBF81E090E0AE
:1006C000DF91CF911F910F91FF90EF900895F62E3B
:1006D0000B8D10E00F5F1F4F0F731127E02E8C8DD5
:1006E0008E110CC00FB607FCFACFE889F98980811A
:1006F00085FFF5CFCE010E941E03F1CFEB8DEC0FED
:10070000FD2FF11DE35AFF4FF0829FB7F8940B8F36
:10071000EA89FB8980818062CFCFCF93DF93EC01A0
:10072000888D8823B9F0AA89BB89E889F9898C91D9
:1007300085FD03C0808186FD0DC00FB607FCF7CF95
:100740008C9185FFF2CF808185FFEDCFCE010E9495
:100750001E03E9CFDF91CF91089580E090E0892BCF
:1007600029F00E94140381110E94000080E090E0B3
:10077000892B49F080E090E0892B29F00E9400004D
:1007800081110E94000080E090E0892B49F080E018
:1007900090E0892B29F00E94000081110E94000046
:1007A00080E090E0892B49F080E090E0892B29F0EF
:1007B0000E94000081110C94000008950895FC012E
:1007C0008381882359F094818681882349F0878129
:1007D0002185211102C08923808708959281F4CF59
:1007E0008581F6CFFB011082118212821382FA01F9
:1007F00010821182128213820895089590E080E0A1
:10080000089590E080E0089508958FEF94E00895B2
:10081000282F86E592E0A0E0BB2730E0220F331FAF
:10082000820F931FA11DB11DABBFFC018791969153
:100830000895CF93DF9300D01F92CDB7DEB7FB01B1
:100840004081518162817381FC012481211104C0A6
:1008500040835183628373830F900F900F900F90AA
:10086000DF91CF910895FC018481882351F0858127
:100870009681A781B085FB0180839183A283B38396
:10088000089580819181A281B381F5CFFC0114820A
:100890000895FC0114820895CF93DF93FC01EB01CE
:1008A00088819981AA81BB8121E0248385839683F5
:1008B000A783B08780839183A283B383DF91CF9195
:1008C0000895CF93DF9300D01F92CDB7DEB7FB0121
:1008D0004081518162817381FC012481211104C016
:1008E00040835183628373830F900F900F900F901A
:1008F000DF91CF910895FC018481882351F0858197
:100900009681A781B085FB0180839183A283B38305
:10091000089580819181A281B381F5CFFC01148279
:100920000895CF93DF93FC01EB0188819981AA811F
:10093000BB8121E0248385839683A783B08780834E
:100940009183A283B383DF91CF910895FC01DB01F2
:10095000808581111DC07C9111966C911197129622
:100960005C91129713964C91139714963C9114979F
:1009700015962C91159716969C91169717968C9113
:100980007083618352834383348325839683878373
:100990000895FC01DB0180858823F1F07185628573
:1009A0005385448535852685978580897C93119666
:1009B0006C93119712965C93129713964C9313971E
:1009C00014963C93149715962C93159716969C9312
:1009D000169717968C930895708161815281438197
:1009E0003481258196818781E1CFFC0110860895AD
:1009F000FC0110860895FC01DB017C9111966C913D
:100A0000119712965C91129713964C911397149626
:100A10003C91149715962C91159716969C911697C4
:100A200017968C91A1E0A0877187628753874487CE
:100A3000358726879787808B7083618352834383B2
:100A400034832583968387830895FC01DB018085A9
:100A500081111DC07C9111966C91119712965C9139
:100A6000129713964C91139714963C9114971596E0
:100A70002C91159716969C91169717968C917083CA
:100A800061835283438334832583968387830895C8
:100A9000FC01DB0180858823F1F071856285538537
:100AA000448535852685978580897C9311966C933E
:100AB000119712965C93129713964C931397149672
:100AC0003C93149715962C93159716969C9316970E
:100AD00017968C930895708161815281438134818E
:100AE000258196818781E1CFFC01DB017C91119604
:100AF0006C91119712965C91129713964C911397E3
:100B000014963C91149715962C91159716969C91D6
:100B1000169717968C91A1E0A087718762875387FB
:100B20004487358726879787808B708361835283BC
:100B3000438334832583968387830895FC0124812E
:100B400021110AC0FB014081518162817381FC0146
:100B500040835183628373830895FC0184818823D9
:100B600051F085819681A781B085FB0180839183B7
:100B7000A283B383089580819181A281B381F5CF4F
:100B8000FC0114820895CF93DF93FC01EB0188816F
:100B90009981AA81BB8121E0248385839683A783E1
:100BA000B08780839183A283B383DF91CF9108952F
:100BB000FC01248121110AC0FB0140815181628125
:100BC0007381FC0140835183628373830895FC0128
:100BD0008481882351F085819681A781B085FB01AE
:100BE00080839183A283B383089580819181A281C0
:100BF000B381F5CFCF93DF93FC01EB01888199811D
:100C0000AA81BB8121E0248385839683A783B08753
:100C100080839183A283B383DF91CF910895FC01F8
:100C20002281211106C0FB0120813181FC01318329
:100C300020830895FC018281882331F0838194818F
:100C4000FB0191838083089580819181F9CFFC011C
:100C500012820895FC0112820895FC01DB018D913E
:100C60009C9121E0228394838383918380830895E0
:100C7000FC012281211106C0FB0120813181FC0190
:100C8000318320830895FC018281882331F08381A0
:100C90009481FB0191838083089580819181F9CFB4
:100CA000FC01DB018D919C9121E02283948383835D
:100CB000918380830895FC012181211104C0FB01EF
:100CC0002081FC0120830895FC018181882321F08B
:100CD0008281FB01808308958081FBCFFC0111821A
:100CE0000895FC0111820895FC01DB018C9191E0D3
:100CF0009183828380830895FC012181211104C0A6
:100D0000FB012081FC0120830895FC01818188235F
:100D100021F08281FB01808308958081FBCFFC015B
:100D200011820895FC01DB018C9191E09183828313
:100D300080830895FC018181882321F08281FB0159
:100D4000808308958081FBCF0F931F93882339F010
:100D500060E070E080E090E01F910F91089506E55B
:100D600012E020E033272BBFF8010791169160179E
:100D70007107B0F484E592E0A0E0BB27ABBFFC01B3
:100D800087919691660F771F660F771F680F791FFF
:100D9000FB0125913491FB0132968491B901DBCF9F
:100DA00060E070E0D8CF0E94A406672B59F085312F
:100DB00048F499E0899FF0011124E25FFB4F8085A0
:100DC00090E0089590E080E008950F931F93CF93F3
:100DD0008A010E94A406E82FCB010097B1F0E5310B
:100DE000A0F429E0E29FF0011124E25FFB4FC085EF
:100DF000CC2359F00480F581E02DB80119958C2F92
:100E000090E0CF911F910F91089590E080E0F9CF8D
:100E10009E5FFC0110820895EF92FF920F931F9343
:100E2000CF93DF93CDB7DEB7CC5FD2400FB6F89447
:100E3000DEBF0FBECDBFFB0130813F3708F03EE77C
:100E4000FB01BE016F5F7D4FDB0120E0231751F0F6
:100E5000428151814527542745274D935D932F5F4C
:100E60003296F4CF30E0DE01119650E040E07D0193
:100E70004217530748F4FB0101911191BF010D93F3
:100E80001D934F5F5F4FF4CFD901AA0FBB1FAE0D6B
:100E9000BF1D1D921C92DC01BE5F41E04C93C1500E
:100EA000DE4F39832883CF5FD140119680E092E0F6
:100EB000F70101900D920197E1F7C450DD4F0FB695
:100EC000F894DEBF0FBECDBFDF91CF911F910F9180
:100ED000FF90EF900895EF92FF920F931F93CF939F
:100EE000DF93CDB7DEB7CC5FD2400FB6F894DEBF4C
:100EF0000FBECDBFFB0130813F3708F03EE7FB015D
:100F0000BE016F5F7D4FDB0120E0231751F042816E
:100F100051814527542745274D935D932F5F329686
:100F2000F4CF30E0DE01119650E040E07D01421741
:100F3000530748F4FB0101911191BF010D931D93DB
:100F40004F5F5F4FF4CFA901440F551F4E0D5F1D3A
:100F5000FA0111821082C150DE4F39832883CF5F9E
:100F6000D14020E032E0F701DC0101900D922150E8
:100F70003040D9F7C450DD4F0FB6F894DEBF0FBE36
:100F8000CDBFDF91CF911F910F91FF90EF9008950A
:100F90008F5F9E4FFC0110820895FC012181211179
:100FA00008C021E0FB013081311101C020E0FC01CB
:100FB00020830895FC0181E0DB019C91911101C027
:100FC00080E091E091838283808308952091560789
:100FD000209530E0F901E25FFC4F90819095225F0F
:100FE0003D4FD9018C9140913E0550913F054250B3
:100FF0005109E6E5F7E031969F0126553740241761
:10100000350770F420819227292F30E0D901A25FA3
:10101000BC4F9C919827225F3D4FD9018C91EBCF1B
:10102000089523E030E030933F0520933E05E6E548
:10103000F7E090911F079083805881836283089521
:101040000F931F93582F577001E010E020E030E01D
:1010500004C0000F111F221F331F5A95D2F723E03F
:10106000969587952A95E1F79927E0912907F091C0
:101070002A07662321F0E0912F07F0913007E80F4F
:10108000F91F8081442329F0082B00831F910F91C1
:10109000089500950823F9CF2F923F924F925F92C7
:1010A0006F927F928F929F92AF92BF92CF92DF9278
:1010B000EF92FF920F931F93CF93DF93CDB7DEB7DD
:1010C000C655D1090FB6F894DEBF0FBECDBF10E0F4
:1010D00000E0F801EE0FFF1FE155F94F0190F0819C
:1010E000E02D309749F041E08081811101C040E05E
:1010F00060E0C8010E9420080F5F1F4F08331105F0
:1011000041F7E0902007F09021072FE636E02D967A
:101110003FAF2EAF2D978701005C1F4FF701D9011C
:101120008D919D919D01009729F0DC018D919C91FD
:101130009183808332960E171F0789F7D12CC12C1B
:10114000F601EE0FFF1FE150FA4F0190F081E02D04
:10115000309749F041E08081811101C040E061E0B9
:10116000C6010E942008BFEFCB1ADB0AE8E3CE16C7
:10117000D10431F74FEB55E0E0912C07F0912D07AA
:101180009F01205C3F4FDA018D919D91AD01009749
:1011900029F0DC018D919C91918380833296E21736
:1011A000F30789F7E7E9F5E02F96FFAFEEAF2F974A
:1011B000F80128E6E20EF11C27E935E0D9018D910E
:1011C0009D919D01009729F0DC018D919C91918367
:1011D00080833296EE16FF0689F7EFE6F5E061961A
:1011E000FFAFEEAF6197E0912307F09124079F01D5
:1011F000205B3F4F0FE615E0D8018D919D918D0149
:10120000009749F0DC014D915D916D917C91408397
:101210005183628373833496E217F30769F7E7E437
:10122000F5E02B96FFAFEEAF2B97E0912607F091FC
:1012300027079F0120563F4F87E495E0DC01CD90C2
:10124000DD90CD01C114D104F1F0D601EC901196DE
:10125000FC90119712960C91129713961C9113976C
:1012600014967C91149715966C91159716965C912F
:10127000169717964C91E082F18202831383748350
:1012800065835683478338962E173F07B9F68091BA
:10129000450590914605DC01ED91FC910084F185B6
:1012A000E02D199518161906B4F5809156089091FD
:1012B00057088F3F910509F070F580914505909191
:1012C0004605DC01ED91FC910284F385E02D199532
:1012D0002091560830915708A9014F5F5F4F5093F6
:1012E0005708409356082A5A384FF90180832FB780
:1012F000F89480914E0790914F07A0915007B091BC
:1013000051072FBF80933A0590933B05A0933C056E
:10131000B0933D05BCCF40915608509157084115F8
:10132000510509F466C09091560780911F079817E0
:1013300019F00E94D601EFCF4230510508F461C187
:101340008091570764E0862E912CA12CB12C81341A
:1013500009F168F4813030F08730B8F08F50823076
:1013600008F419C188248A94982C540113C0E9E028
:101370008E2E912CA12CB12C833461F008F42FC156
:10138000843409F416C1853469F7F8E08F2E912C66
:10139000A12CB12C61E086169606A104B10448F692
:1013A00081149104A104B10429F084014815590560
:1013B00008F02BC12FB7F89480914E0790914F07FA
:1013C000A0915007B09151072FBF40913A0550911D
:1013D0003B0560913C0570913D05841B950BA60B68
:1013E000B70B0997A105B10520F01092570810928C
:1013F00056084091290750912A0730E020E0F90172
:10140000EE0FFF1FE155F94F0190F081E02D30976D
:1014100099F0D90183E0B695A7958A95E1F7A40FD5
:10142000B51F8C9190E0622F677002C095958795EB
:101430006A95E2F7817080832F5F3F4F2833310533
:10144000F1F68091200790912107BC01605C7F4FED
:10145000DC012D96EEADFFAD2D97219131912D96AA
:10146000FFAFEEAF2D972115310531F04D915C9115
:101470001197F9015183408312966A177B0749F748
:10148000FB0188599F4F2F96AEADBFAD2F974D9161
:101490005D912F96BFAFAEAF2F974115510529F043
:1014A00020813181DA012D933C9332968E179F076C
:1014B00051F7E0912307F0912407CF01805B9F4F04
:1014C0006196AEADBFAD61972D913D916196BFAF75
:1014D000AEAF61972115310551F040815181628194
:1014E0007381D9014D935D936D937C9313973496DB
:1014F0008E179F0729F7E0912607F0912707CF0164
:1015000080569F4F2B96AEADBFAD2B97ED90FD90C3
:101510002B96BFAFAEAF2B97E114F104F1F0008131
:101520001181728163815481458136812781D70180
:101530000C9311961C93119712967C931297139605
:101540006C93139714965C93149715964C93159778
:1015500016963C93169717962C9338968E179F07DE
:1015600089F6CA5ADF4F0FB6F894DEBF0FBECDBF63
:10157000DF91CF911F910F91FF90EF90DF90CF906F
:10158000BF90AF909F908F907F906F905F904F90A3
:101590003F902F9008954730510598F180905C0757
:1015A000912CB12CA12CF9E08F0E911CA11CB11C27
:1015B000F1CE4430510528F1209158073091590758
:1015C000322723273227A3E0B0E00E94F7194B010E
:1015D0005C0126E0820E911CA11CB11CDBCE4830C0
:1015E000510578F080905C0790905D0798248924DD
:1015F0009824B12CA12C3AE0830E911CA11CB11CA3
:10160000C9CE812C912C5401C5CED09057078FEBB9
:101610008D0D853000F190923F0580923E050E942D
:10162000E607B501A40142505109610971094A5AFE
:10163000584FDA012C91B1E08B1A9108A108B1083A
:10164000F401EA5AF84F308123273227232728173D
:10165000390709F06ECE0250110910933F0500932F
:101660003E056090580770905907762467247624C9
:101670008091580700915A0710915B0710270127A6
:101680001027E0905907F0905A07FE24EF24FE241B
:10169000C0905B07EFE0DE1609F4A9C5ED15D8F19F
:1016A000F3E0DF1609F492C1FD1568F021E0D216CF
:1016B00009F426C432E0D31609F4ACC461E070E04A
:1016C0008D2D90E025C045E0D41609F471C5D416DF
:1016D00008F429C556E0D512F1CF20912207809158
:1016E000250790E0880F991FE22FF0E08E0F9F1FD3
:1016F00040912807B4E04B9FA0011124480F591FC7
:101700006416750608F455C062E070E086E090E06B
:101710000E9411085BC062E4D61609F408C76D1573
:10172000E8F070E1D71609F474C281E4D812C6CF8C
:10173000D092570781E0809358078EE7809359072E
:1017400080E00E94080490935A0780935B0786E02C
:1017500090E090933F0580933E0538C094E4D916FD
:1017600009F46CC6D91608F4F7C5A5E4DA12A6CFB9
:10177000D09257078EE78093580781E2E7E0F5E0C3
:101780009E012F5F3F4FD90101900D928A95E1F79D
:10179000A9E5B7E0A901CA01821B930BFA01619187
:1017A000AF01FD01E655F740662309F408C76D93C4
:1017B000F2CF6E167F06D8F4660C771CE0912007F6
:1017C000F0912107E60DF71D1183008380913E05FE
:1017D00090913F0502968130914008F466C5809152
:1017E000570764E070E090E00E9411085EC568163B
:1017F0007906F0F5A80170E060E0809123079091F0
:10180000240760FC1CC093012E1B3F0BF901EE0F57
:10181000FF1FEC7FF370E80FF91F80819181A28197
:10182000B381AA27BB27BA0155274427842B952BC0
:10183000A62BB72B80839183A283B383C7CFE09578
:10184000F095E60DF71DEE0FFF1FEC7FF370E80F2C
:10185000F91F008111812281338100271127042B78
:10186000152B262B372B0083118322833383AECF96
:101870009301237033274801B12CA12CC12CD12C0A
:101880007601E0912607F09127072115310549F5EA
:10189000681A790A660C771C38EF632237E07322E6
:1018A000E60DF71D5080618072801381B481A5819F
:1018B000940140E050E060E070E080E090E000E300
:1018C0000E94651A25292083632A6182742A728204
:1018D000152B1383B62BB483A72BA58386839783FD
:1018E00075CF2130310541F54FEF641A740A681A3B
:1018F000790A660C771C58EF652257E07522E60DD1
:10190000F71D5080618072801381B681A781940198
:10191000A501B601C70100E20E94651A522A508251
:10192000632A6182742A7282152B13836483758300
:101930008B2B86839A2BD3CF2230310529F562E099
:10194000660E711C681A790A660C771C78EF67229C
:1019500077E07722E60DF71D508061807480158155
:10196000B681A7819401A501B601C70100E10E94DB
:10197000651A522A5082632A618242835383762AEF
:101980007482172B1583D4CFA3E06A0E711C681ADA
:10199000790A660C771CB8EF6B22B7E07B22E60D64
:1019A000F71D528143813481258196818781808210
:1019B00091825A2952834B2943833C2934832D2910
:1019C00025839E2996838F29878300CFC80101979D
:1019D00063E070E08D379105C8F44301800E911EDD
:1019E00020912207E0912507F0E0EE0FFF1FE20FA4
:1019F000F11D8091280734E0839FC00111248E0FD0
:101A00009F1F8816990628F062E070E083E090E05E
:101A10007FCE000F111F0D5F1F4F10933F050093E6
:101A20003E0536E5E32E37E0F32ED7011196CD01C2
:101A3000865597408017910710F41C92F7CF83E0EA
:101A400080935707035000935807C0902607D09003
:101A50002707A0902307B0902407A0912007B091FA
:101A60002107BEAFADAFA22FB0E02796BFAFAEAF9C
:101A7000279783E090E01C012E1A3F0A2D01409425
:101A800050948614970409F4A1CE2796AEADBFAD4D
:101A900027976A167B0660F49301220F331FADADC2
:101AA000BEAD2A0F3B1FD9018C9111963C911CC0F1
:101AB0006E167F0680F560FC24C0C3012796AEAD8C
:101AC000BFAD27978A1B9B0B880F991F8C7F937044
:101AD0008A0D9B1DDC014D915D916D917C91AB0157
:101AE00066277727842F352FD70113963C931397BA
:101AF00014968C93B2E0EB0EF11C2FEF621A720A6F
:101B0000C0CF9201260D371D220F331F2C7F33705B
:101B10002A0D3B1DC8CF8301037011270115110544
:101B200021F583010E1B1F0B000F111F087F17707B
:101B30000C0D1D1DD8012C9111963C9111971296F8
:101B40004C91129713965C91139714966C9114977D
:101B500015967C91159716968C91169717969C91D1
:101B600000E30E94801A822FBFCF0130110511F5CA
:101B70000E1B1F0B060D171D000F111F087F17707E
:101B80000C0D1D1DD8012C9111963C9111971296A8
:101B90004C91129713965C91139714966C9114972D
:101BA00015967C91159716968C91169717969C9181
:101BB00000E2D7CF0230110511F50E1B1F0B060DE9
:101BC000171D000F111F087F17700C0D1D1DD80168
:101BD0002C9111963C91119712964C911297139655
:101BE0005C91139714966C91149715967C911597A8
:101BF00016968C91169717969C9100E1B2CF9101A1
:101C0000260D371D220F331F287F37702C0D3D1DE9
:101C10004ACFC80101978B37910540F420915C07AA
:101C2000C801880F991F2817190629F063E070E092
:101C300080E190E06DCDD301A00FB11F2796BFAF1B
:101C4000AEAF279720902207A0912507B0E0AA0FFA
:101C5000BB1F312CA20DB31D80912807E4E08E9F9D
:101C6000C00111248A0F9B1F2796EEADFFAD279769
:101C7000E817F90718F062E070E0DACF86E090E04C
:101C800090933F0580933E05D09257077092580776
:101C90006092590710925A0700935B07E09026075D
:101CA000F0902707E0912307F09124072996FFAFD2
:101CB000EEAF2997E0912007F09121076396FFAFDF
:101CC000EEAF639726E5422E27E0522E83E090E0A8
:101CD000FC01EA1BFB0B6596FFAFEEAF6597F101C8
:101CE000E095F0956796FFAFEEAF67972796EEAD5C
:101CF000FFAD27976E167F0609F4D7C2F201478120
:101D00008085142F082F6214730490F4F301EE0FF2
:101D1000FF1F63962EAD3FAD6397E20FF31F118354
:101D200000835FEF651A750A62E0460E511CDECF34
:101D30006A167B06D8F5A80170E060E060FC1FC061
:101D4000F301E219F309EE0FFF1FEC7FF370299600
:101D50008EAD9FAD2997E80FF91F00811181228177
:101D6000338122273327BA0155274427402B512B93
:101D7000622B732B4083518362837383D2CF679628
:101D8000EEADFFAD6797E60DF71DEE0FFF1FEC7F81
:101D9000F37029962EAD3FAD2997E20FF31F008116
:101DA00011812281338100271127E0CFF301E370F5
:101DB000FF27980150E040E060E070E0CB012DAFDC
:101DC0003EAF4FAF21965FAF219722966FAF22971C
:101DD00023967FAF239724968FAF249725969FAFA6
:101DE0002597309739F5F301EA1BFB0BEE0FFF1F28
:101DF000E87FF770EE0DFF1D9080A180B280C38058
:101E0000D480158140E050E060E070E080E090E038
:101E100000E30E94651A292920833A2931834B293E
:101E200042835C295383D62AD482172B1583868359
:101E3000978377CFE130F10549F5EA1BFB0BE60DFF
:101E4000F71DEE0FFF1FE87FF770EE0DFF1D90806E
:101E5000A180B280C380D68017812DAD3EAD40E019
:101E600050E060E070E080E090E000E20E94651ADF
:101E7000292920833A2931834B294283C52AC382E9
:101E8000648375838D298683912BD2CFE230F1054F
:101E900031F5EA1BFB0BE60DF71DEE0FFF1FE87F88
:101EA000F770EE0DFF1D9080A180B480C580D680B4
:101EB00017812DAD3EAD40E050E060E070E080E085
:101EC00090E000E10E94651A292920833A29318394
:101ED00042835383B62AB482C72AC582D3CF65967C
:101EE000EEADFFAD6597E60DF71DEE0FFF1FE87F26
:101EF000F770EE0DFF1D3DAD30834EAD418311CF28
:101F0000C8010197803D974028F063E070E081E0D0
:101F100090E0FECB20912B07C301800F911F62E060
:101F200070E02817190698F3C80123E09695879565
:101F30002A95E1F7980127703327232B91F4039614
:101F400090933F0580933E0580913E0590913F051B
:101F5000E6E5F7E08130A1E09A0728F064E070E060
:101F6000D6CF0496EDCF31969F01265537402817DE
:101F7000390710F41082F7CF91E090935707835000
:101F800080935807A0902907B0902A0770E060E07E
:101F900020E0C12CD12C7601C39416012701022E1A
:101FA00004C0220C331C441C551C0A94D2F7FB01BC
:101FB00043E0F695E7954A95E1F7E75AF84F308107
:101FC000A301A3E056954795AA95E1F74F715527D0
:101FD0004A0D5B1DDA014C9150E0B62DB77002C07E
:101FE00055954795BA95E2F7822D40FF0FC0832B98
:101FF00080832F5F283009F420E0EFEF6E1A7E0A0D
:102000006F5F7F4F0617170741F6E0CB80953823A7
:102010003083EFCFC801019763E070E0803D9740C7
:1020200030F520913107C301800F911F62E070E00D
:1020300028171906E0F0C80133E0969587953A9580
:10204000E1F7980127703327232BA1F4039690938F
:102050003F0580933E0580913E0590913F05E6E562
:10206000F7E0813021E0920738F064E070E082E030
:1020700090E04ECB0496EBCF31969F01265537402A
:102080002817390710F41082F7CF92E09093570782
:1020900083508093580760912F077091300750E06C
:1020A00040E0B12CC12CD12C7601C394160127013C
:1020B0000B2C04C0220C331C441C551C0A94D2F770
:1020C000FA0183E0F695E7958A95E1F7E75AF84F2C
:1020D000A080930193E0369527959A95E1F7260F16
:1020E000372F311DD9012C9130E0B62DB77002C0C9
:1020F00035952795BA95E2F7822D20FF10C08A29E1
:102100008083B394E8E0BE1201C0B12CFFEF6F1AD8
:102110007F0A4F5F5F4F0417150741F657CB809535
:10212000A822A082EECFC801019763E070E08D374E
:10213000910550F420912E07C301800F911F28179D
:10214000190628F462E070E084E090E0E1CAC8017A
:10215000880F991F039690933F0580933E05E6E50F
:10216000F7E0DF0111969D01265537402817390702
:1021700010F41C92F7CF94E090935707835080930C
:102180005807660C771CA0912C07B0912D07A60D5F
:10219000B71D0150110932960F3F100709F416CBF5
:1021A0008C9111969C911197129691838283F1CF15
:1021B00001153FEF130729F063E070E001151105E9
:1021C00049F480912B078150990B8615970528F4C7
:1021D00062E070E085E090E09BCA41E001151F4F8E
:1021E00009F040E060E0C3010E942008EFCA9801B6
:1021F000E3E036952795EA95E1F7822FA80147702D
:102200005527452B11F081E0820F980121503109AB
:10221000203B374020F490915C07981729F063E049
:1022200070E08FE090E074CA20912B07C301800F0B
:10223000911F2817190618F462E070E0F2CF86E0CB
:1022400090E090933F0580933E058FE08093570781
:10225000709258076092590710935A0700935B07D2
:10226000F12CE12CD12CF70173E0F695E7957A95E6
:10227000E1F7EA5AF84F478150E00D2C02C055951E
:1022800047950A94E2F7417060E0C3018E0D9F1DEF
:102290000E942008D39478E0D71201C0D12C8FEF90
:1022A000E81AF80A0E151F05F1F600913E05109187
:1022B0003F05780122E0E20EF11CF0923F05E0922A
:1022C0003E050E94E607F801EA5AF84F90838183A1
:1022D0008091440587FD11C061E00E94F401809166
:1022E0004005909141058230910538F0880F991F83
:1022F000880F991F05970197F1F7809145059091F7
:102300004605DC01ED91FC910280F381E02DA701EF
:1023100066E577E019958091450590914605DC01C9
:10232000ED91FC910680F781E02D19958091400593
:10233000909141058230910538F0880F991F880FE0
:10234000991F05970197F1F78091440587FD4DC8C6
:1023500060E00E94F40149C8811165C0C0905B072C
:10236000D0905C070E940804009709F45CC0E8164E
:10237000F90608F058C0DC24CD24DC24C816D906A0
:1023800008F051C0CE14DF0408F44DC0570161E6D7
:10239000862E67E0962E10E000E0B50180E00E94F6
:1023A000D3069C01200F311F255F3F4F2130314064
:1023B00098F4892B59F0A401B50180E00E94E5064C
:1023C000009721F0880E991E080F191FC50101966C
:1023D0007501C816D90628F5C8010B9690933F05DC
:1023E00080933E0583E4809357078EE780935807D8
:1023F000F0925907E0925A0780913C0790913D076F
:1024000020913E0730913F0730935B0720935C0794
:1024100090935D0780935E0710935F0700936007BA
:10242000D5C95C01BACF83E090E090933F058093DB
:102430003E0583E48093570781E876C0B5E16B16CB
:10244000710408F068C0C301880F991F860D971D9D
:10245000AAE5B7E08E010F5F1F4FF8019F01201B17
:10246000310B2817390718F42D912193F7CFB12C90
:10247000A12C512CD12CC12C4BE0E42EF12C6A1450
:102480007B0431F1F801408081808281982C882E74
:10249000B401842D0E94D306009791F08E0D9F1DEC
:1024A00081309140A8F4A7014A5A584FB401842DB5
:1024B0000E94E506009721F0E80EF91EC80ED91E0D
:1024C0000D5F1F4F5A2C95012F5F3F4F5901D7CFFA
:1024D000F0923F05E0923E0584E4809357078EE733
:1024E000809358071092590750925A0780913C07E1
:1024F00090913D0720913E0730913F0730935B0755
:1025000020935C0790935D0780935E07D0925F07EE
:10251000C09260075BC983E090E090933F05809391
:102520003E05D092570782E8809358074FC9009123
:102530005C0710915D07102701271027093F11053F
:1025400048F083E090E090933F0580933E05D09261
:10255000570772CFB7010E94A406282FCB0100971E
:1025600051F1253140F530E049E0429FF001439FB1
:10257000F00D1124E25FFB4FCC20C1F02085222317
:10258000E1F02017110609F0C0F40190F081E02D70
:102590006EE577E019958EE723E030E030933F0554
:1025A00020933E0592E490935707BECF0280F381BB
:1025B000E02D1995F0CF81E8EFCF82E8EDCFEA5A10
:1025C000F84F2DEA2083FC01EA5AF84F2EED2483C0
:1025D0000596BFC80F931F93CF93DF938B01FC0128
:1025E000FE5F2081222351F19C012F5F3D4F22503D
:1025F0003E4FD9012D913C912F37310510F02EE738
:1026000030E0622FE80128834081442311F08F5F7E
:102610009D4FFC01D80180E0861790F4908132969E
:1026200011969C931197AF0142505109EA0199818B
:1026300012969C9312978F5F1296EECF9C01D7CF84
:10264000220F331F2F5F3F4F2D3F310579F04DEFA4
:1026500050E0421B530B70E060E0C801820F931FF3
:10266000DF91CF911F910F910C94DE1BDF91CF91E1
:102670001F910F9108950C944C1B0C944C1B0F93BD
:102680001F93CF93DF93CDB7DEB7C150D1400FB6C4
:10269000F894DEBF0FBECDBF8C01FB0140814F37E8
:1026A00008F04EE750E0C050DF4F59834883C050D8
:1026B000D1406F5F7F4FCE0101960E94D51BC05065
:1026C000DF4FE881F981C050D14081E090E08C0F6C
:1026D0009D1FE80FF91F1082F801EF5FFE4F81E0A8
:1026E0008083D801AE5FBE4F81E091E0FE0131965C
:1026F00001900D920197E1F7CF5FDE4F0FB6F8948E
:10270000DEBF0FBECDBFDF91CF911F910F91089516
:102710000F931F93CF93DF93CDB7DEB7C150D14056
:102720000FB6F894DEBF0FBECDBF8C01FB01408118
:102730004F3708F04EE750E0C050DF4F59834883D1
:10274000C050D1406F5F7F4FCE0101960E94D51BD4
:10275000C050DF4FE881F981C050D14081E090E066
:102760008C0F9D1FE80FF91F108281E091E0FE01A0
:102770003196D80101900D920197E1F7CF5FDE4FBE
:102780000FB6F894DEBF0FBECDBFDF91CF911F9182
:102790000F910895FF920F931F93CF93DF938B01B7
:1027A000FC01EF5FFE4F2081222319F19C012E5F77
:1027B0003E4F21503F4FD901CD91DC91CF37D1050C
:1027C00010F0CEE7D0E0FC2ED801CC93C11113C09D
:1027D0004EE750E04C1B5D0BCE01019670E060E0CF
:1027E000800F911FDF91CF911F910F91FF900C945B
:1027F000DE1B9C01DECF2081BC01222311F06E5F25
:102800007E4FAE01C80101960E94D51B8EE7F812DB
:10281000DFCFDF91CF911F910F91FF9008951F920D
:102820000F920FB60F9211242F933F938F939F9384
:10283000AF93BF9380914E0790914F07A09150079F
:10284000B091510730914D0723E0230F2D3758F5F4
:102850000196A11DB11D20934D0780934E079093C3
:102860004F07A0935007B093510780915207909162
:102870005307A0915407B09155070196A11DB11DB2
:102880008093520790935307A0935407B093550732
:10289000BF91AF919F918F913F912F910F900FBE5C
:1028A0000F901F90189526E8230F0296A11DB11DC9
:1028B000D2CF1F920F920FB60F9211240BB60F9228
:1028C0002F933F934F935F936F937F938F939F9338
:1028D000AF93BF93EF93FF9388E598E00E941E03A8
:1028E000FF91EF91BF91AF919F918F917F916F91E8
:1028F0005F914F913F912F910F900BBE0F900FBEA4
:102900000F901F9018951F920F920FB60F921124DF
:102910000BB60F922F938F939F93EF93FF93E091BA
:102920006808F09169088081E0916E08F0916F0865
:1029300082FD1DC09081809171088F5F8F732091FF
:102940007208821741F0E0917108F0E0E85AF74F01
:10295000958F80937108FF91EF919F918F912F91A7
:102960000F900BBE0F900FBE0F901F901895808197
:10297000F2CFE8E5F8E01382128288EE93E0A0E05F
:10298000B0E084839583A683B7838FEC94E0918332
:10299000808385EC90E09587848784EC90E097872E
:1029A000868780EC90E0918B808B81EC90E0938B1C
:1029B000828B82EC90E0958B848B86EC90E0978BF9
:1029C000868B118E128E138E148EE5EFF8E085EF54
:1029D00094E09183808381EE94E0938382831482D8
:1029E0001582168281E087831086118612861386EF
:1029F000148685871686178627EF38E033A322A32F
:102A000028E235E0318B208B128A9DE2938B91E393
:102A1000948B858B168A178A108E118E128E138EC8
:102A2000148E158E87E199E0978F868F81E090E074
:102A300091A380A321E335E035A324A326E335E069
:102A400037A326A325E039E031A720A793A782A7C3
:102A50000895CF93DF93CDB7DEB764970FB6F894A0
:102A6000DEBF0FBECDBF789484B5826084BD84B5CF
:102A7000816084BD85B5826085BD85B5816085BD79
:102A800080916E00816080936E0010928100809131
:102A900081008260809381008091810081608093B9
:102AA0008100809180008160809380008091B100DE
:102AB00084608093B1008091B00081608093B00009
:102AC000809191008260809391008091910081605B
:102AD000809391008091900081608093900080911C
:102AE000A10082608093A1008091A1008160809309
:102AF000A1008091A00081608093A00080912101BD
:102B00008260809321018091210181608093210165
:102B10008091200181608093200180917A008460FF
:102B200080937A0080917A00826080937A0080910D
:102B30007A00816080937A0080917A008068809327
:102B40007A001092C10020911F09309120093A8B20
:102B5000298B80911D0990911E099C8B8B8B9A83E8
:102B600089831A861986312C212C712C812C912C69
:102B70001B821C82612C512C412CA989BA89E985C0
:102B8000FA85AE17BF0709F490C0A981BA815096A3
:102B90008D919C915197280E391E1296DC901297B8
:102BA0001396EC9013971496FC90149715960C912D
:102BB000159716961C9116971796BC91E981FA8184
:102BC000C084B1842D2D3E2D4F2D502F612F7B2F92
:102BD0008C2D9B2DA0E00E94A41A09F054F4D12C56
:102BE0006DE2E62E71E3F72E01E010E0B0E0C12CBB
:102BF000B12CDD82EF82FB860C871D87BE87CF86D6
:102C0000B88A272D382D492D5B816C81762D852D35
:102C1000942DA0E00E94A41A51F1AD80BF80CB8416
:102C2000DC84ED84FE840F851889272D382D492DED
:102C30005B816C81762D852D942D0E94061AD22EF3
:102C4000E32EF42E052F162FB72FF82FE92F7A2C0D
:102C50008B2C9C2C2C852B833D853C836E845F8440
:102C600048882D2D3E2DA0E00E94A41AA9F4898544
:102C70009A8501969A878987A981BA815296BA83E3
:102C8000A9837D808F809B84BC85BB83ED85EC838D
:102C90006E845F84488871CFDD82EF82FB860C876B
:102CA0001D87BE87FF87E88BB8CF272D382D492D8C
:102CB0005B816C81762D852D942DA0E00E94A41A55
:102CC00059F4712C4DE2842E51E3952EF1E0FB83F3
:102CD0001C82612C512C412C7092000280920102C6
:102CE000909202022B81209303023C8130930402D4
:102CF000609205025092060240920702211480E47D
:102D0000380608F0A3C0C101880F991F009709F485
:102D1000A0C00E94B01A9E838D8390933B0780933E
:102D20003A07211490E2390608F096C0C101880FD5
:102D3000991F880F991F009709F491C00E94B01A3B
:102D400098878F8390934107809340073092430781
:102D5000209242071A821982312C212CA985BA852A
:102D6000E981FA81AE17BF0709F489C0AB89BC8934
:102D70001296DC9012971396EC9013971496FC9091
:102D8000149715960C91159716961C9116971796F1
:102D9000BC91EB89FC89C084B1842D2D3E2D4F2D33
:102DA000502F612F7B2F8C2D9B2DA0E00E94A41A09
:102DB00009F044F4272D382D492D5B816C81762D47
:102DC000852D942DA72CB82CC92CDB80EC80F62CFB
:102DD000052D142D0E94081AB22EA32E742F652FD4
:102DE000AB89BC8950964D915C918A01000F111FEF
:102DF0007101EE0CFF1C6101CC0CDD1CCC0CDD1C48
:102E000090E080E00817190769F1AB89BC891E962C
:102E1000ED91FC91E80FF91F20813181F701E80F56
:102E2000F91FAD81BE81EA0FFB1F31832083FC01B6
:102E3000EE0FFF1FEC0DFD1D2F813885E20FF31FF4
:102E4000B082A182728363830296DCCF8FEF9FEF03
:102E500060CF81E090E05DCF8FEF9FEF6FCF81E09B
:102E600090E06CCF240E351E89819A8101969A8359
:102E70008983AB89BC895296BC8BAB8B6FCFE091B9
:102E80006808F091690882E08083E0916408F0911D
:102E900065081082E0916608F091670880E1808300
:102EA00010927008E0916C08F0916D0886E08083C4
:102EB000E0916A08F0916B08808180618083E091E5
:102EC0006A08F0916B08808188608083E0916A08CD
:102ED000F0916B08808180688083E0916A08F091AE
:102EE0006B0880818F7D808388E598E0909346050C
:102EF000809345058FEF809344058EEE92E090938A
:102F000043058093420581E49AE0909341058093C4
:102F1000400581E080931F0784E38093220784E1CA
:102F2000809325078093280788E380932B0790E2FE
:102F300090932E078093310787E090E00E94B01AAB
:102F400090932A0780932907009709F451C017E04E
:102F5000FC01212F11922A95E9F788E690E00E9462
:102F6000B01A9093210780932007009709F440C07E
:102F700028E6DC011D922A95E9F780E590E00E94A1
:102F8000B01A9093240780932307009789F120E5D6
:102F9000FC0111922A95E9F780EA90E00E94B01AAC
:102FA0009093270780932607009711F120EADC0110
:102FB0001D922A95E9F787E090E00E94B01A90935D
:102FC000300780932F07009799F0FC0111921A9512
:102FD000E9F780E490E00E94B01A90932D07809367
:102FE0002C07009729F020E4DC011D922A95E9F7CF
:102FF00010E000E0C801880F991FFC01E155F94F6E
:103000007F0180819181892B49F481E090E00E94C9
:10301000B01AD7018D939C93FC0110820F5F1F4F54
:103020000833110539F70091200710912107EFE6C9
:10303000F6E090E080E021913191232B39F4DF011B
:1030400012979801280F391F2D933C9302968034D4
:10305000910589F7D12CC12CC601880F991F9C01BD
:1030600021503A4F7901D9018D919C91892B49F4D6
:1030700081E090E00E94B01AF70191838083DC0127
:103080001C92BFEFCB1ADB0AE8E3CE16D10421F77E
:1030900020912C0730912D07EFEBF5E090E080E0D8
:1030A00041915191452B39F4DF011297A901480F45
:1030B000591F4D935C9302968034910589F7E7E997
:1030C000F5E090E080E0005C1F4F21913191232BCF
:1030D00039F4DF0112979801280F391F2D933C9383
:1030E00002968832910589F7409123075091240771
:1030F000EFE6F5E090E080E021913191232B59F447
:10310000DF0112979C01220F331F220F331F240F60
:10311000351F2D933C9301968431910569F74091B9
:10312000260750912707E7E4F5E090E080E0219141
:103130003191232B61F4DF0112979C0163E0220F90
:10314000331F6A95E1F7240F351F2D933C930196A9
:103150008431910561F748EEA42E53E0B52EC12CC1
:10316000D12CE12CF12C00E010E0272D382D492D39
:103170005B816C81762D852D942D0E94081A2093F9
:1031800045073093460740934707509348070E94EE
:1031900080026093490770934A0780934B0790938E
:1031A0004C07992493940E94800200914907109142
:1031B0004A0720914B0730914C07601B710B820B23
:1031C000930B0091450710914607209147073091D6
:1031D0004807601771078207930708F4C5C01A8271
:1031E0001982809142079091430729813A812817DB
:1031F0003907D8F5E0914007F0914107C901880FE0
:10320000991F880F991FE80FF91F20813181428192
:103210005381211531054105510571F060913C073D
:1032200070913D0780913E0790913F070E94CD1914
:10323000672B682B692B99F4E0913A07F0913B07D3
:1032400089819A81880F991FE80FF91F80819181E8
:10325000DC01ED91FC910480F581E02D1995E98167
:10326000FA813196FA83E983BCCF80913C07909133
:103270003D07A0913E07B0913F070196A11DB11DEA
:1032800080933C0790933D07A0933E07B0933F0780
:103290002091320730913307409134075091350720
:1032A0006091360770913707809138079091390700
:1032B000A0900002B0900102C0900202D0900302E0
:1032C000E0900402F09005020091060210910702BE
:1032D0000E949B1A209332073093330740933407A0
:1032E00050933507609336077093370780933807FC
:1032F000909339070E944C0880914407811118C0AF
:10330000909244070E948002009145071091460761
:103310002091470730914807601B710B820B930B7C
:103320006093490770934A0780934B0790934C072B
:103330008091490790914A07A0914B07B0914C07A3
:1033400040914507509146076091470770914807A3
:10335000840F951FA61FB71F8093490790934A07B4
:10336000A0934B07B0934C070E948002009149073D
:1033700010914A0720914B0730914C07601B710B4D
:10338000820B930B603177428105910510F00E940A
:103390004C0888950E94AD0306CFA1E21A2EAA1B05
:1033A000BB1BFD010DC0AA1FBB1FEE1FFF1FA217F5
:1033B000B307E407F50720F0A21BB30BE40BF50BF2
:1033C000661F771F881F991F1A9469F7609570957B
:1033D000809590959B01AC01BD01CF010895EE0F42
:1033E000FF1F881F8BBF0790F691E02D1994A29FB5
:1033F000B001B39FC001A39F700D811D1124911DC9
:10340000B29F700D811D1124911D0895689401C013
:10341000E8948F929F92CF93DF930E94141ADF91CA
:10342000CF919F908F90089588249924F401E4010E
:10343000B0E49F93AA279A158B049C04ED05FE0522
:10344000CF05D007A10798F4AD2FDC2FCF2FFE2F8B
:10345000E92D982C892E982F872F762F652F542FA2
:10346000432F322F2227B85031F7BF9127C01B2E90
:10347000BF91BB27220F331F441F551F661F771FA5
:10348000881F991F881C991CEE1FFF1FCC1FDD1F72
:10349000AA1FBB1F8A149B04EC05FD05CE05DF05A2
:1034A000A007B10748F08A189B08EC09FD09CE096E
:1034B000DF09A00BB10B21601A94E1F62EF4940100
:1034C000AF01BE01CD01000C0895002E083090F030
:1034D000982F872F762F652F542F432F322F222797
:1034E0000850F4CF220F331F441F551F661F771F4C
:1034F000881F991F0A95B2F7002D089597FD109423
:10350000002E083098F00850232F342F452F562FC7
:10351000672F782F892F912DF4CF15949795879544
:103520007795679557954795379527950A95AAF703
:103530001124002D08952A0D3B1D4C1D5D1D6E1D8F
:103540007F1D801F911F08950024A7FD00942A1756
:10355000300540055005600570058005900508950B
:103560000F931F93CF93DF938230910510F482E085
:1035700090E0E0912309F091240930E020E0B0E0F0
:10358000A0E0309799F42115310509F44AC0281BB1
:10359000390B24303105D8F58A819B81611571057D
:1035A00089F1FB0193838283FE0111C04081518127
:1035B0000281138148175907E0F04817590799F419
:1035C000109761F012960C93129713961C933296F3
:1035D000CF01DF91CF911F910F910895009323099F
:1035E00010932409F4CF2115310551F042175307E8
:1035F00038F0A901DB019A01BD01DF01F801C1CF5B
:10360000EF01F9CF9093240980932309CDCFFE01D8
:10361000E20FF31F8193919322503109398328835C
:10362000D7CF2091210930912209232B41F42091F9
:103630000A0230910B023093220920932109209134
:103640000802309109022115310541F42DB73EB72A
:1036500040910C0250910D02241B350BE091210981
:10366000F0912209E217F307A0F42E1B3F0B281755
:10367000390778F0AC014E5F5F4F2417350748F0EB
:103680004E0F5F1F5093220940932109819391931C
:103690009FCFF0E0E0E09CCFCF93DF930097E9F07D
:1036A000FC01329713821282A0912309B091240960
:1036B000ED0130E020E01097A1F420813181820FEC
:1036C000931F20912109309122092817390709F009
:1036D00061C0F0932209E0932109DF91CF91089511
:1036E000EA01CE17DF07E8F54A815B819E014115AB
:1036F0005105B1F7E901FB83EA8349915991C40F60
:10370000D51FEC17FD0761F4808191810296840F2B
:10371000951FE90199838883828193819B838A83A2
:10372000F0E0E0E012968D919C9113970097B9F527
:103730002D913C911197CD010296820F931F2091FC
:103740002109309122092817390739F6309751F5A8
:103750001092240910922309B0932209A093210901
:10376000BCCFD383C28340815181840F951FC8177A
:10377000D90761F44E5F5F4F88819981480F591FC7
:10378000518340838A819B819383828321153105F4
:1037900009F0B0CFF0932409E09323099ECFFD01F7
:1037A000DC01C0CF13821282D7CFFB01DC0102C043
:1037B00001900D9241505040D8F70895DC0101C0AE
:0E37C0006D9341505040E0F70895F894FFCF0C
:1037CE00002D31010000000000002509800000C01E
:1037DE00C101C30302C2C60607C705C5C404CC0C8B
:1037EE000DCD0FCFCE0E0ACACB0BC90908C8D818FB
:1037FE0019D91BDBDA1A1EDEDF1FDD1D1CDC14D40B
:10380E00D515D71716D6D21213D311D1D010F0303A
:10381E0031F133F3F23236F6F737F53534F43CFC4A
:10382E00FD3DFF3F3EFEFA3A3BFB39F9F83828E8FA
:10383E00E929EB2B2AEAEE2E2FEF2DEDEC2CE424CA
:10384E0025E527E7E62622E2E323E12120E0A0603A
:10385E0061A163A3A26266A6A767A56564A46CAC0A
:10386E00AD6DAF6F6EAEAA6A6BAB69A9A86878B87A
:10387E00B979BB7B7ABABE7E7FBF7DBDBC7CB4748A
:10388E0075B577B7B67672B2B373B17170B050903A
:10389E0091519353529296565797559594549C5CCA
:1038AE005D9D5F9F9E5E5A9A9B5B9959589888487A
:1038BE0049894B8B8A4A4E8E8F4F8D4D4C8C44844A
:1038CE00854587474686824243834181804000C1B9
:1038DE00814001C0804101C0804100C1814001C0D2
:1038EE00804100C1814000C1814001C0804101C0C2
:1038FE00804100C1814000C1814001C0804100C1B2
:10390E00814001C0804101C0804100C1814001C0A1
:10391E00804100C1814000C1814001C0804100C191
:10392E00814001C0804101C0804100C1814000C181
:10393E00814001C0804101C0804100C1814001C071
:10394E00804100C1814000C1814001C0804101C061
:10395E00804100C1814000C1814001C0804100C151
:10396E00814001C0804101C0804100C1814000C141
:10397E00814001C0804101C0804100C1814001C031
:10398E00804100C1814000C1814001C0804100C121
:10399E00814001C0804101C0804100C1814001C011
:1039AE00804100C1814000C1814001C0804101C001
:1039BE00804100C1814000C1814001C0804100C1F1
:1039CE00814001C0804101C0804100C18140DA07C1
:1039DE006E069A06CD070192068F0685067C0601B5
:1039EE007406710664065B06015006270643063808
:1039FE0006022D062A061A060F0602FA054604E7E7
:103A0E0005D80504C305C005AD059E05047405F56E
:103A1E00044805250508FB04F804C904A60408910A
:103A2E00048E047B046104044C0449043304190419
:103A3E00047406710664065B06012D062A061A0634
:103A4E000F0602C305C005AD059E0504FB04F80470
:103A5E00C904A604087405F504480525050874056F
:103A6E00F50448052505087405F5044805250508DF
:103A7E007405F50448052505083F13C807CA1388C1
:103A8E00137F0C070807EA126B07FD0000000040C9
:103A9E0003AA02D7028D030803E602FA0200000011
:103AAE0000DE033D13DF030104FE03FD03FD03F2FD
:103ABE00030000000004043B130504A802A5024302
:103ACE004F4E464947300035393665373938333829
:103ADE003431363962653166663437343765616440
:103AEE0035663232303530004D41494E5441534BDC
:0A3AFE00005245533000504C4300C5
:00000001FF
