:100000000C94A1010C94D2010C94D2010C94D20155
:100010000C94D2010C94D2010C94D2010C94D20114
:100020000C94D2010C94D2010C94D2010C94D20104
:100030000C94D2010C94D2010C94D2010C94D201F4
:100040000C94D2010C94D2010C94D2010C94D201E4
:100050000C94D2010C94D2010C94D2010C945E1435
:100060000C94D2010C94D2140C94A8140C94D201C8
:100070000C94D2010C94D2010C94D2010C94D201B4
:100080000C94D2010C94D2010C94D2010C94D201A4
:100090000C94D2010C94D2010C94D2010C94D20194
:1000A0000C94D2010C94D2010C94D2010C94D20184
:1000B0000C94D2010C94D2010C94D2010C94D20174
:1000C0000C94D2010C94D2010C94D2010C94D20164
:1000D0000C94D2010C94D2010C94D2010C94D20154
:1000E0000C94D2010C9450040C9445020C947402AC
:1000F0000C94F6030C9401040C9496060C9448029C
:100100000C9405040C94DC030C9456070C94060321
:100110000C94F9040C9441020C943E030C948A1341
:100120000C943C060C945C020C9408150C9422026E
:100130000C94F8020C947F040C9427020C94800613
:100140000C945F060C94D5020C94C4050C944706DD
:100150000C9437040C94AA040C94A6020C94D013AB
:100160000C9429050C9416080C9428080C94090486
:100170000C94C7050C94CD040C94DD030C9472060A
:100180000C948C130C9492040C946A020C94A802A4
:100190000C94A3020C9478050C9468060C944E02FF
:1001A0000C94E4020C948E130C94B9070C94DC05A7
:1001B0000C942E060C9452020C944D040C9493064D
:1001C0000C941B080C9478020C94FE050C943D02D0
:1001D0000C944A040C94A2050C945A070C9408043D
:1001E0000C9402040C94FC040C94EB050C9475061E
:1001F0000C9413060C94B1050C948B030C941E06FE
:100200000C9465040C9419140C9454060C944C052D
:100210000C9460020C9466020C9439020C948906CA
:100220000C9478060C949E060C9431060C9458029B
:100230000C9439130C94FF040C942B060C94950425
:100240000C946E020C941D040D09040012090000A8
:100250004802020000002200250028002B002E008A
:100260003100340002010000050108010B01050501
:100270000505070508080808020202020A0A08081C
:10028000040404040101010101010101030303034A
:1002900003030303040707070C0C0C0C0C0C0C0CD9
:1002A0000202020206060606060606060B0B0B0BEA
:1002B0000B0B0B0B0102102020080810204010200F
:1002C000408002010201080402010102040810201A
:1002D0004080804020100804020180040201804018
:1002E0002010080402010804020101020408102081
:1002F0004080010204081020408000000A0B02091F
:100300000C0D0E08070304010000000000000000AF
:1003100000000000000000000000000000000000DD
:10032000000000000000121110000000000000009A
:1003300000000000000000000000000000000000BD
:10034000081511241FBECFEFDFEFDEBFCDBF00E0E9
:100350000CBF15E0A0E0B2E0EAE6F9E300E00BBF75
:1003600002C007900D92AE34B107D9F729E0AEE490
:10037000B5E001C01D92A833B207E1F711E0C1EA70
:10038000D1E000E006C021970109802FFE010E9404
:10039000BD1AC03AD10780E00807A9F70E94871567
:1003A0000C94B31C0C94000040916A0850916B08A7
:1003B000EAE6F7E081E090E04230510530F4109237
:1003C0006B0810926A080895C901218121939C014C
:1003D0002F5F3F4F42175307B9F790936B088093F5
:1003E0006A080895282F30E0F901E650FD4F9491F6
:1003F000F901EC54FD4F449122593D4FF9012491EC
:10040000222309F435C0992311F191509231F8F467
:10041000E92FF0E08827E05FFD4F8F4F0C94BD1A65
:1004200041024502220239023D02270248024E02E1
:10043000520258025C02600266026A0227026E02E1
:1004400074027802809180008F7780938000E22F81
:10045000F0E0EE0FFF1FEC5AFD4FA591B4918FB75E
:10046000F894EC91611148C040954E234C938FBF96
:100470000895809180008F7DE8CF80918000877FF4
:10048000E4CF84B58F7784BDE2CF84B58F7DFBCF79
:100490008091B0008F778093B000D9CF8091B00069
:1004A0008F7DF9CF809190008F7780939000CFCF90
:1004B000809190008F7DF9CF80919000877FF5CF5C
:1004C0008091A0008F778093A000C1CF8091A00081
:1004D0008F7DF9CF8091A000877FF5CF809120019B
:1004E0008F7780932001B3CF809120018F7DF9CF4A
:1004F00080912001877FF5CF4E2BB8CF3FB7F8947E
:100500008091660790916707A0916807B09169078D
:1005100026B5A89B05C02F3F19F00196A11DB11D5E
:100520003FBFBA2FA92F982F8827BC01CD01620F9A
:10053000711D811D911D42E0660F771F881F991F55
:100540004A95D1F7089581E090E008958396089543
:10055000AF92BF92CF92DF92EF92FF920F931F93D1
:10056000CF93DF936C017B018B01040F151FEB010F
:100570005E01AE18BF08C017D10759F06991D601C6
:10058000ED91FC910190F081E02DC6011995892B28
:1005900079F7C501DF91CF911F910F91FF90EF90F7
:1005A000DF90CF90BF90AF900895FC01538D448DA4
:1005B000252F30E0842F90E0821B930B541710F00E
:1005C000CF96089501970895FC01918D828D98171B
:1005D00061F0A28DAE0FBF2FB11D5D968C91928DF3
:1005E0009F5F9F73928F90E008958FEF9FEF089524
:1005F000FC01918D828D981731F0828DE80FF11DED
:10060000858D90E008958FEF9FEF0895FC01918D07
:10061000228D892F90E0805C9F4F821B91098F7300
:10062000992708958CE698E00E94060321E0892B23
:1006300009F420E0822F0895FC01A48DA80FB92FA2
:10064000B11DA35ABF4F2C91848D90E001968F73FA
:100650009927848FA689B7892C93A089B1898C9119
:10066000837080648C93938D848D981306C0028868
:10067000F389E02D80818F7D80830895EF92FF9232
:100680000F931F93CF93DF93EC0181E0888F9B8DB5
:100690008C8D98131AC0E889F989808185FF15C06F
:1006A0009FB7F894EE89FF896083E889F989808192
:1006B0008370806480839FBF81E090E0DF91CF9161
:1006C0001F910F91FF90EF900895F62E0B8D10E083
:1006D0000F5F1F4F0F731127E02E8C8D8E110CC0F2
:1006E0000FB607FCFACFE889F989808185FFF5CF3D
:1006F000CE010E941C03F1CFEB8DEC0FFD2FF11DFD
:10070000E35AFF4FF0829FB7F8940B8FEA89FB8979
:1007100080818062CFCFCF93DF93EC01888D8823D7
:10072000B9F0AA89BB89E889F9898C9185FD03C054
:10073000808186FD0DC00FB607FCF7CF8C9185FF39
:10074000F2CF808185FFEDCFCE010E941C03E9CF5F
:10075000DF91CF91089580E090E0892B29F00E94ED
:10076000120381110E94000080E090E0892B49F083
:1007700080E090E0892B29F00E94000081110E9406
:10078000000080E090E0892B49F080E090E0892B28
:1007900029F00E94000081110E94000080E090E09A
:1007A000892B49F080E090E0892B29F00E9400001D
:1007B00081110C94000008950895FC018481882320
:1007C00059F0858196818E31910548F0808581119F
:1007D0000CC081E08783089582819381F4CF4C9788
:1007E00020F48085811101C017820895FB011082D9
:1007F000118212821382FA011082118212821382F4
:100800000895089590E080E0089590E080E00895D4
:10081000089583E195E00895282F82E592E0A0E015
:10082000BB2730E0220F331F820F931FA11DB11D84
:10083000ABBFFC01879196910895CF93DF9300D0D1
:100840001F92CDB7DEB7FB01408151816281738178
:10085000FC012481211104C040835183628373838E
:100860000F900F900F900F90DF91CF910895FC01A2
:100870008481882351F085819681A781B085FB0111
:1008800080839183A283B383089580819181A28123
:10089000B381F5CFFC0114820895FC011482089500
:1008A000CF93DF93FC01EB0188819981AA81BB8101
:1008B00021E0248385839683A783B08780839183F7
:1008C000A283B383DF91CF910895CF93DF9300D0BC
:1008D0001F92CDB7DEB7FB014081518162817381E8
:1008E000FC012481211104C04083518362837383FE
:1008F0000F900F900F900F90DF91CF910895FC0112
:100900008481882351F085819681A781B085FB0180
:1009100080839183A283B383089580819181A28192
:10092000B381F5CFFC0114820895CF93DF93FC01CE
:10093000EB0188819981AA81BB8121E02483858391
:100940009683A783B08780839183A283B383DF914B
:10095000CF910895FC01DB01808581111DC07C9140
:1009600011966C91119712965C91129713964C9177
:10097000139714963C91149715962C9115971696EB
:100980009C91169717968C91708361835283438351
:1009900034832583968387830895FC01DB0180855A
:1009A0008823F1F0718562855385448535852685D8
:1009B000978580897C9311966C93119712965C931E
:1009C000129713964C93139714963C93149715967D
:1009D0002C93159716969C93169717968C930895BB
:1009E0007081618152814381348125819681878123
:1009F000E1CFFC0110860895FC0110860895FC01EA
:100A0000DB017C9111966C91119712965C91129773
:100A100013964C91139714963C91149715962C911C
:100A2000159716969C91169717968C91A1E0A08722
:100A30007187628753874487358726879787808B9E
:100A400070836183528343833483258396838783B2
:100A50000895FC01DB01808581111DC07C911196F8
:100A60006C91119712965C91129713964C91139773
:100A700014963C91149715962C91159716969C9167
:100A8000169717968C9170836183528343833483C6
:100A90002583968387830895FC01DB018085882365
:100AA000F1F0718562855385448535852685978566
:100AB00080897C9311966C93119712965C93129790
:100AC00013964C93139714963C93149715962C9366
:100AD000159716969C93169717968C930895708188
:100AE0006181528143813481258196818781E1CF63
:100AF000FC01DB017C9111966C91119712965C912F
:100B0000129713964C91139714963C91149715963F
:100B10002C91159716969C91169717968C91A1E09B
:100B2000A087718762875387448735872687978791
:100B3000808B7083618352834383348325839683C0
:100B400087830895FC01248121110AC0FB014081A3
:100B5000518162817381FC0140835183628373837D
:100B60000895FC018481882351F085819681A781B5
:100B7000B085FB0180839183A283B3830895808134
:100B80009181A281B381F5CFFC0114820895CF93A6
:100B9000DF93FC01EB0188819981AA81BB8121E06F
:100BA000248385839683A783B08780839183A283E0
:100BB000B383DF91CF910895FC01248121110AC0F4
:100BC000FB014081518162817381FC01408351832B
:100BD000628373830895FC018481882351F08581A9
:100BE0009681A781B085FB0180839183A283B38323
:100BF000089580819181A281B381F5CFCF93DF9356
:100C0000FC01EB0188819981AA81BB8121E02483C9
:100C100085839683A783B08780839183A283B383E0
:100C2000DF91CF910895FC012281211106C0FB01C3
:100C300020813181FC01318320830895FC01828170
:100C4000882331F083819481FB019183808308950F
:100C500080819181F9CFFC0112820895FC011282FA
:100C60000895FC01DB018D919C9121E02283948306
:100C70008383918380830895FC012281211106C022
:100C8000FB0120813181FC01318320830895FC0127
:100C90008281882331F083819481FB019183808359
:100CA000089580819181F9CFFC01DB018D919C91A8
:100CB00021E0228394838383918380830895FC01C0
:100CC0002181211104C0FB012081FC0120830895B2
:100CD000FC018181882321F08281FB0180830895BA
:100CE0008081FBCFFC0111820895FC0111820895DF
:100CF000FC01DB018C9191E09183828380830895D4
:100D0000FC012181211104C0FB012081FC01208311
:100D10000895FC018181882321F08281FB01808379
:100D200008958081FBCFFC0111820895FC01DB0155
:100D30008C9191E09183828380830895FC0181816D
:100D4000882321F08281FB01808308958081FBCF7D
:100D5000A8E0B2E01896ED91FC911997309751F008
:100D600011968C911197823049F150F4882301F14A
:100D70008130F1F01A9682E0AC31B80759F7089546
:100D8000833021F18430B1F78085882399F3818500
:100D9000808382858183838582838485838385851F
:100DA0008483868585838785868380898783E2CF50
:100DB00081818823F9F282818083DCCF828188233C
:100DC000C9F28381948191838083D4CF84818823E5
:100DD00089F24581568167817085408351836283A2
:100DE0007383C8CF0F931F93882339F060E070E0BE
:100DF00080E090E01F910F91089502E512E020E05D
:100E000033272BBFF8010791169160177107B0F4D3
:100E100080E592E0A0E0BB27ABBFFC0187919691F3
:100E2000660F771F660F771F680F791FFB012591EB
:100E30003491FB0132968491B901DBCF60E070E020
:100E4000D8CF0E94F206672B59F0853148F499E01B
:100E5000899FF0011124EE5DFB4F808590E008959D
:100E600090E080E008950F931F93CF938A010E9432
:100E7000F206E82FCB010097B1F0E531A0F429E0AC
:100E8000E29FF0011124EE5DFB4FC085CC2359F0A9
:100E90000480F581E02DB80119958C2F90E0CF9159
:100EA0001F910F91089590E080E0F9CF9E5FFC01C3
:100EB00010820895EF92FF920F931F93CF93DF93C9
:100EC000CDB7DEB7CC5FD2400FB6F894DEBF0FBE11
:100ED000CDBFFB0130813F3708F03EE7FB01BE018B
:100EE0006F5F7D4FDB0120E0231751F0428151817C
:100EF0004527542745274D935D932F5F3296F4CFB6
:100F000030E0DE01119650E040E07D0142175307CA
:100F100048F4FB0101911191BF010D931D934F5FA7
:100F20005F4FF4CFD901AA0FBB1FAE0DBF1D1D929D
:100F30001C92DC01BE5F41E04C93C150DE4F39830F
:100F40002883CF5FD140119680E092E0F7010190B5
:100F50000D920197E1F7C450DD4F0FB6F894DEBF54
:100F60000FBECDBFDF91CF911F910F91FF90EF90FA
:100F70000895EF92FF920F931F93CF93DF93CDB716
:100F8000DEB7CC5FD2400FB6F894DEBF0FBECDBF48
:100F9000FB0130813F3708F03EE7FB01BE016F5F88
:100FA0007D4FDB0120E0231751F04281518145271D
:100FB000542745274D935D932F5F3296F4CF30E051
:100FC000DE01119650E040E07D014217530748F4DE
:100FD000FB0101911191BF010D931D934F5F5F4F75
:100FE000F4CFA901440F551F4E0D5F1DFA01118268
:100FF0001082C150DE4F39832883CF5FD14020E07B
:1010000032E0F701DC0101900D9221503040D9F718
:10101000C450DD4F0FB6F894DEBF0FBECDBFDF91D9
:10102000CF911F910F91FF90EF9008958F5F9E4F8A
:10103000FC0110820895FC012181211108C021E0EA
:10104000FB013081311101C020E0FC0120830895B3
:10105000FC0181E0DB019C91911101C080E091E0F5
:10106000918382838083089520916A07209530E0E0
:10107000F901EE5DFC4F908190952E5D3D4FD901B9
:101080008C91409152055091530542505109EAE626
:10109000F7E031969F012A5637402417350770F440
:1010A00020819227292F30E0D901AE5DBC4F9C9161
:1010B00098272E5D3D4FD9018C91EBCF089523E009
:1010C00030E03093530520935205EAE6F7E0909123
:1010D0003307908380588183628308950F931F9311
:1010E000582F577001E010E020E030E004C0000FFE
:1010F000111F221F331F5A95D2F723E0969587952B
:101100002A95E1F79927E0913D07F0913E07662384
:1011100021F0E0914307F0914407E80FF91F808127
:10112000442329F0082B00831F910F910895009507
:101130000823F9CF2F923F924F925F926F927F9246
:101140008F929F92AF92BF92CF92DF92EF92FF92D7
:101150000F931F93CF93DF93CDB7DEB7C655D10959
:101160000FB6F894DEBF0FBECDBF10E000E0F8016F
:10117000EE0FFF1FED53F94F0190F081E02D3097F6
:1011800049F041E08081811101C040E060E0C80188
:101190000E946E080F5F1F4F0833110541F7E09062
:1011A0003407F090350723E836E02D963FAF2EAF99
:1011B0002D978701005C1F4FF701D9018D919D91FB
:1011C0009D01009729F0DC018D919C919183808392
:1011D00032960E171F0789F7D12CC12CF601EE0F9E
:1011E000FF1FED5EF94F0190F081E02D309749F03F
:1011F00041E08081811101C040E061E0C6010E94B0
:101200006E08BFEFCB1ADB0AE8E3CE16D10431F744
:1012100043ED55E0E0914007F09141079F01205CCC
:101220003F4FDA018D919D91AD01009729F0DC01CE
:101230008D919C91918380833296E217F30789F711
:10124000EBEAF5E02F96FFAFEEAF2F97F80128E617
:10125000E20EF11C2BEA35E0D9018D919D919D01A3
:10126000009729F0DC018D919C91918380833296C7
:10127000EE16FF0689F7E3E8F5E06196FFAFEEAF03
:101280006197E0913707F09138079F01205B3F4F4E
:1012900003E815E0D8018D919D918D01009749F0EB
:1012A000DC014D915D916D917C914083518362830E
:1012B00073833496E217F30769F7EBE5F5E02B96B5
:1012C000FFAFEEAF2B97E0913A07F0913B079F01FC
:1012D00020563F4F8BE595E0DC01CD90DD90CD01B0
:1012E000C114D104F1F0D601EC901196FC90119745
:1012F00012960C91129713961C91139714967C9149
:10130000149715966C91159716965C9116971796EB
:101310004C91E082F1820283138374836583568348
:10132000478338962E173F07B9F68091590590915B
:101330005A05DC01ED91FC910084F185E02D1995B1
:1013400018161906B4F580916A0890916B088F3FC2
:10135000910509F070F58091590590915A05DC01CD
:10136000ED91FC910284F385E02D199520916A0896
:1013700030916B08A9014F5F5F4F50936B0840930A
:101380006A082659384FF90180832FB7F894809165
:10139000620790916307A0916407B09165072FBF22
:1013A00080934E0590934F05A0935005B09351053F
:1013B000BCCF40916A0850916B084115510509F462
:1013C00066C090916A0780913307981719F00E94C0
:1013D000D401EFCF4230510508F462C180916B0710
:1013E00064E0862E912CA12CB12C813409F168F493
:1013F000813030F08730B8F08F50823008F41AC155
:1014000088248A94982C540113C0E9E08E2E912CE4
:10141000A12CB12C833461F008F430C1843409F478
:1014200017C1853469F7F8E08F2E912CA12CB12CCF
:1014300061E086169606A104B10448F68114910471
:10144000A104B10429F084014815590508F02CC104
:101450002FB7F8948091620790916307A091640779
:10146000B09165072FBF40914E0550914F05609197
:10147000500570915105841B950BA60BB70B09976E
:10148000A105B10520F010926B0810926A084091F6
:101490003D0750913E0730E020E0F901EE0FFF1FBD
:1014A000ED53F94F0190F081E02D309799F0D9017B
:1014B00083E0B695A7958A95E1F7A40FB51F8C91A7
:1014C00090E0622F677002C0959587956A95E2F764
:1014D000817080832F5F3F4F28333105F1F6809173
:1014E000340790913507BC01605C7F4FDC012D967D
:1014F000EEADFFAD2D97219131912D96FFAFEEAF5F
:101500002D972115310531F04D915C911197F9011D
:101510005183408312966A177B0749F7FB0188596C
:101520009F4F2F96AEADBFAD2F974D915D912F96EA
:10153000BFAFAEAF2F974115510529F02081318102
:10154000DA012D933C9332968E179F0751F7E09165
:101550003707F0913807CF01805B9F4F6196AEADA2
:10156000BFAD61972D913D916196BFAFAEAF6197D1
:101570002115310551F04081518162817381D9017A
:101580004D935D936D937C93139734968E179F07BD
:1015900029F7E0913A07F0913B07CF0180569F4F22
:1015A0002B96AEADBFAD2B97ED90FD902B96BFAFB8
:1015B000AEAF2B97E114F104F1F00081118172813B
:1015C00063815481458136812781D7010C9311961F
:1015D0001C93119712967C93129713966C93139702
:1015E00014965C93149715964C93159716963C9306
:1015F000169717962C9338968E179F0789F6CA5A16
:10160000DF4F0FB6F894DEBF0FBECDBFDF91CF9195
:101610001F910F91FF90EF90DF90CF90BF90AF9010
:101620009F908F907F906F905F904F903F902F9002
:101630000C94A8064730510598F180907007912CC2
:10164000B12CA12CF9E08F0E911CA11CB11CF0CE85
:101650004430510528F120916C0730916D073227F5
:1016600023273227A3E0B0E00E94C51A4B015C019A
:1016700026E0820E911CA11CB11CDACE4830510527
:1016800078F08090700790907107982489249824AE
:10169000B12CA12C3AE0830E911CA11CB11CC8CE28
:1016A000812C912C5401C4CED0906B078FEB8D0D03
:1016B000853000F190925305809252050E943408C3
:1016C000B501A40142505109610971094659584FA9
:1016D000DA012C91B1E08B1A9108A108B108F4014C
:1016E000E659F84F30812327322723272817390757
:1016F00009F06DCE02501109109353050093520565
:1017000060906C0770906D07762467247624809132
:101710006C0700916E0710916F07102701271027A3
:10172000E0906D07F0906E07FE24EF24FE24C09039
:101730006F07EFE0DE1609F4A9C5ED15D8F1F3E067
:10174000DF1609F492C1FD1568F021E0D21609F404
:1017500026C432E0D31609F4ACC461E070E08D2DEC
:1017600090E025C045E0D41609F471C5D41608F4FC
:1017700029C556E0D512F1CF20913607809139075F
:1017800090E0880F991FE22FF0E08E0F9F1F40918D
:101790003C07B4E04B9FA0011124480F591F641669
:1017A000750608F455C062E070E086E090E00E94A3
:1017B0005F085BC062E4D61609F408C76D15E8F04F
:1017C00070E1D71609F474C281E4D812C6CFD09262
:1017D0006B0781E080936C078EE780936D0780E054
:1017E0000E940C0490936E0780936F0786E090E050
:1017F000909353058093520538C094E4D91609F4A8
:101800006CC6D91608F4F7C5A5E4DA12A6CFD092B3
:101810006B078EE780936C0781E2EBE1F5E09E01B8
:101820002F5F3F4FD90101900D928A95E1F7ADE608
:10183000B7E0A901CA01821B930BFA016191AF01C4
:10184000FD01EA56F740662309F408C76D93F2CF0D
:101850006E167F06D8F4660C771CE0913407F09181
:101860003507E60DF71D1183008380915205909195
:10187000530502968130914008F466C580916B074C
:1018800064E070E090E00E945F085EC5681679062B
:10189000F0F5A80170E060E080913707909138077B
:1018A00060FC1CC093012E1B3F0BF901EE0FFF1FC4
:1018B000EC7FF370E80FF91F80819181A281B381E1
:1018C000AA27BB27BA0155274427842B952BA62B83
:1018D000B72B80839183A283B383C7CFE095F09524
:1018E000E60DF71DEE0FFF1FEC7FF370E80FF91FF9
:1018F000008111812281338100271127042B152BB0
:10190000262B372B0083118322833383AECF9301A1
:10191000237033274801B12CA12CC12CD12C760186
:10192000E0913A07F0913B072115310549F5681A16
:10193000790A660C771C38EF632237E07322E60DD4
:10194000F71D5080618072801381B481A58194015C
:1019500040E050E060E070E080E090E000E30E9452
:10196000331B25292083632A6182742A7282152BF6
:101970001383B62BB483A72BA5838683978375CF58
:101980002130310541F54FEF641A740A681A790A5B
:10199000660C771C58EF652257E07522E60DF71D9F
:1019A0005080618072801381B681A7819401A50166
:1019B000B601C70100E20E94331B522A5082632AFB
:1019C0006182742A7282152B1383648375838B2B37
:1019D00086839A2BD3CF2230310529F562E0660E3B
:1019E000711C681A790A660C771C78EF672277E019
:1019F0007722E60DF71D5080618074801581B681D5
:101A0000A7819401A501B601C70100E10E94331B23
:101A1000522A5082632A618242835383762A7482D7
:101A2000172B1583D4CFA3E06A0E711C681A790AAC
:101A3000660C771CB8EF6B22B7E07B22E60DF71D32
:101A40005281438134812581968187818082918270
:101A50005A2952834B2943833C2934832D292583DA
:101A60009E2996838F29878300CFC801019763E061
:101A700070E08D379105C8F44301800E911E2091CE
:101A80003607E0913907F0E0EE0FFF1FE20FF11D7E
:101A900080913C0734E0839FC00111248E0F9F1F6B
:101AA0008816990628F062E070E083E090E07FCE2F
:101AB000000F111F0D5F1F4F109353050093520528
:101AC0003AE6E32E37E0F32ED7011196CD018A5680
:101AD00097408017910710F41C92F7CF83E0809312
:101AE0006B07035000936C07C0903A07D0903B07F8
:101AF000A0903707B0903807A0913407B091350710
:101B0000BEAFADAFA22FB0E02796BFAFAEAF279765
:101B100083E090E01C012E1A3F0A2D01409450945E
:101B20008614970409F4A1CE2796AEADBFAD2797D2
:101B30006A167B0660F49301220F331FADADBEAD74
:101B40002A0F3B1FD9018C9111963C911CC06E1637
:101B50007F0680F560FC24C0C3012796AEADBFAD03
:101B600027978A1B9B0B880F991F8C7F93708A0D78
:101B70009B1DDC014D915D916D917C91AB016627C0
:101B80007727842F352FD70113963C9313971496FC
:101B90008C93B2E0EB0EF11C2FEF621A720AC0CFE9
:101BA0009201260D371D220F331F2C7F33702A0D13
:101BB0003B1DC8CF8301037011270115110521F5C5
:101BC00083010E1B1F0B000F111F087F17700C0DD8
:101BD0001D1DD8012C9111963C91119712964C9194
:101BE000129713965C91139714966C91149715960F
:101BF0007C91159716968C91169717969C9100E3F9
:101C00000E944E1B822FBFCF0130110511F50E1B14
:101C10001F0B060D171D000F111F087F17700C0DED
:101C20001D1DD8012C9111963C91119712964C9143
:101C3000129713965C91139714966C9114971596BE
:101C40007C91159716968C91169717969C9100E2A9
:101C5000D7CF0230110511F50E1B1F0B060D171DF6
:101C6000000F111F087F17700C0D1D1DD8012C913E
:101C700011963C91119712964C91129713965C9184
:101C8000139714966C91149715967C911597169648
:101C90008C91169717969C9100E1B2CF9101260D79
:101CA000371D220F331F287F37702C0D3D1D4ACF63
:101CB000C80101978B37910540F420917007C80146
:101CC000880F991F2817190629F063E070E080E15A
:101CD00090E06DCDD301A00FB11F2796BFAFAEAF7F
:101CE000279720903607A0913907B0E0AA0FBB1FB5
:101CF000312CA20DB31D80913C07E4E08E9FC00102
:101D000011248A0F9B1F2796EEADFFAD2797E8178A
:101D1000F90718F062E070E0DACF86E090E0909387
:101D2000530580935205D0926B0770926C076092B6
:101D30006D0710926E0700936F07E0903A07F090DE
:101D40003B07E0913707F09138072996FFAFEEAFD8
:101D50002997E0913407F09135076396FFAFEEAF16
:101D600063972AE6422E27E0522E83E090E0FC01A2
:101D7000EA1BFB0B6596FFAFEEAF6597F101E095AF
:101D8000F0956796FFAFEEAF67972796EEADFFAD84
:101D900027976E167F0609F4D7C2F2014781808526
:101DA000142F082F6214730490F4F301EE0FFF1F39
:101DB00063962EAD3FAD6397E20FF31F118300834F
:101DC0005FEF651A750A62E0460E511CDECF6A1697
:101DD0007B06D8F5A80170E060E060FC1FC0F3014D
:101DE000E219F309EE0FFF1FEC7FF37029968EAD19
:101DF0009FAD2997E80FF91F00811181228133815E
:101E000022273327BA0155274427402B512B622B19
:101E1000732B4083518362837383D2CF6796EEAD79
:101E2000FFAD6797E60DF71DEE0FFF1FEC7FF37018
:101E300029962EAD3FAD2997E20FF31F0081118146
:101E40002281338100271127E0CFF301E370FF27C0
:101E5000980150E040E060E070E0CB012DAF3EAF74
:101E60004FAF21965FAF219722966FAF22972396AF
:101E70007FAF239724968FAF249725969FAF259702
:101E8000309739F5F301EA1BFB0BEE0FFF1FE87FDC
:101E9000F770EE0DFF1D9080A180B280C380D480CA
:101EA000158140E050E060E070E080E090E000E309
:101EB0000E94331B292920833A2931834B294283ED
:101EC0005C295383D62AD482172B15838683978364
:101ED00077CFE130F10549F5EA1BFB0BE60DF71D65
:101EE000EE0FFF1FE87FF770EE0DFF1D9080A180C1
:101EF000B280C380D68017812DAD3EAD40E050E06A
:101F000060E070E080E090E000E20E94331B29294D
:101F100020833A2931834B294283C52AC3826483B3
:101F200075838D298683912BD2CFE230F10531F56F
:101F3000EA1BFB0BE60DF71DEE0FFF1FE87FF770A6
:101F4000EE0DFF1D9080A180B480C580D6801781E2
:101F50002DAD3EAD40E050E060E070E080E090E00C
:101F600000E10E94331B292920833A2931834283CF
:101F70005383B62AB482C72AC582D3CF6596EEAD05
:101F8000FFAD6597E60DF71DEE0FFF1FE87FF770B9
:101F9000EE0DFF1D3DAD30834EAD418311CFC80125
:101FA0000197803D974028F063E070E081E090E089
:101FB000FECB20913F07C301800F911F62E070E0CC
:101FC0002817190698F3C80123E0969587952A9556
:101FD000E1F7980127703327232B91F40396909310
:101FE0005305809352058091520590915305EAE67E
:101FF000F7E08130A1E09A0728F064E070E0D6CFE6
:102000000496EDCF31969F012A563740281739079D
:1020100010F41082F7CF91E090936B078350809378
:102020006C07A0903D07B0903E0770E060E020E0B4
:10203000C12CD12C7601C39416012701022E04C0B5
:10204000220C331C441C551C0A94D2F7FB0143E0BC
:10205000F695E7954A95E1F7E359F84F3081A301EA
:10206000A3E056954795AA95E1F74F7155274A0D7C
:102070005B1DDA014C9150E0B62DB77002C055954A
:102080004795BA95E2F7822D40FF0FC0832B8083DE
:102090002F5F283009F420E0EFEF6E1A7E0A6F5FA1
:1020A0007F4F0617170741F6E0CB80953823308322
:1020B000EFCFC801019763E070E0803D974030F5B5
:1020C00020914507C301800F911F62E070E028173F
:1020D0001906E0F0C80133E0969587953A95E1F747
:1020E000980127703327232BA1F40396909353056F
:1020F000809352058091520590915305EAE6F7E0EE
:10210000813021E0920738F064E070E082E090E0F6
:102110004ECB0496EBCF31969F012A5637402817B5
:10212000390710F41082F7CF92E090936B07835039
:1021300080936C07609143077091440750E040E042
:10214000B12CC12CD12C7601C394160127010B2C84
:1021500004C0220C331C441C551C0A94D2F7FA010B
:1021600083E0F695E7958A95E1F7E359F84FA0806B
:10217000930193E0369527959A95E1F7260F372F2F
:10218000311DD9012C9130E0B62DB77002C03595C4
:102190002795BA95E2F7822D20FF10C08A29808307
:1021A000B394E8E0BE1201C0B12CFFEF6F1A7F0AB2
:1021B0004F5F5F4F0417150741F657CB8095A82254
:1021C000A082EECFC801019763E070E08D379105E2
:1021D00050F420914207C301800F911F2817190660
:1021E00028F462E070E084E090E0E1CAC801880F62
:1021F000991F03969093530580935205EAE6F7E002
:10220000DF0111969D012A5637402817390710F42F
:102210001C92F7CF94E090936B07835080936C07E8
:10222000660C771CA0914007B0914107A60DB71D21
:102230000150110932960F3F100709F416CB8C910B
:1022400011969C911197129691838283F1CF01157B
:102250003FEF130729F063E070E00115110549F421
:1022600080913F078150990B8615970528F462E00D
:1022700070E085E090E09BCA41E001151F4F09F036
:1022800040E060E0C3010E946E08EFCA9801E3E0FD
:1022900036952795EA95E1F7822FA80147705527D3
:1022A000452B11F081E0820F980121503109203B2C
:1022B000374020F490917007981729F063E070E0A0
:1022C0008FE090E074CA20913F07C301800F911FF7
:1022D0002817190618F462E070E0F2CF86E090E06B
:1022E00090935305809352058FE080936B07709213
:1022F0006C0760926D0710936E0700936F07F12CC7
:10230000E12CD12CF70173E0F695E7957A95E1F78A
:10231000E659F84F478150E00D2C02C0559547957E
:102320000A94E2F7417060E0C3018E0D9F1D0E9488
:102330006E08D39478E0D71201C0D12C8FEFE81A41
:10234000F80A0E151F05F1F600915205109153057C
:10235000780122E0E20EF11CF0925305E092520562
:102360000E943408F801E659F84F908381838091E8
:10237000580587FD11C061E00E94F201809154056B
:10238000909155058230910538F0880F991F880F7C
:10239000991F05970197F1F78091590590915A057A
:1023A000DC01ED91FC910280F381E02DA7016AE64A
:1023B00077E019958091590590915A05DC01ED91CE
:1023C000FC910680F781E02D19958091540590913C
:1023D00055058230910538F0880F991F880F991F95
:1023E00005970197F1F78091580587FD4CC860E08B
:1023F0000E94F20148C8811165C0C0906F07D0905B
:1024000070070E940C04009709F45CC0E816F906F6
:1024100008F058C0DC24CD24DC24C816D90608F006
:1024200051C0CE14DF0408F44DC0570165E7862E75
:1024300067E0962E10E000E0B50180E00E942107E1
:102440009C01200F311F255F3F4F2130314098F410
:10245000892B59F0A401B50180E00E943307009751
:1024600021F0880E991E080F191FC50101967501EC
:10247000C816D90628F5C8010B969093530580938A
:10248000520583E480936B078EE780936C07F0928C
:102490006D07E0926E07809150079091510720914F
:1024A00052073091530730936F0720937007909332
:1024B0007107809372071093730700937407D5C94F
:1024C0005C01BACF83E090E090935305809352056E
:1024D00083E480936B0781E876C0B5E16B167104E5
:1024E00008F068C0C301880F991F860D971DAEE6DE
:1024F000B7E08E010F5F1F4FF8019F01201B310BCA
:102500002817390718F42D912193F7CFB12CA12C5E
:10251000512CD12CC12C4BE0E42EF12C6A147B04FD
:1025200031F1F801408081808281982C882EB4019D
:10253000842D0E942107009791F08E0D9F1D813000
:102540009140A8F4A7014659584FB401842D0E9428
:102550003307009721F0E80EF91EC80ED91E0D5F53
:102560001F4F5A2C95012F5F3F4F5901D7CFF09243
:102570005305E092520584E480936B078EE78093C5
:102580006C0710926D0750926E07809150079091E2
:102590005107209152073091530730936F072093D2
:1025A00070079093710780937207D0927307C0925F
:1025B00074075BC983E090E09093530580935205C4
:1025C000D0926B0782E880936C074FC90091700727
:1025D00010917107102701271027093F110548F0B6
:1025E00083E090E09093530580935205D0926B075F
:1025F00072CFB7010E94F206282FCB01009751F14C
:10260000253140F530E049E0429FF001439FF00D55
:102610001124EE5DFB4FCC20C1F020852223E1F098
:102620002017110609F0C0F40190F081E02D62E757
:1026300077E019958EE723E030E03093530520933F
:10264000520592E490936B07BECF0280F381E02D98
:102650001995F0CF81E8EFCF82E8EDCFE659F84F3A
:102660002DEA2083FC01E659F84F2EED24830596D0
:10267000BFC80F931F93CF93DF938B01FC01FE5FC5
:102680002081222351F19C012F5F3D4F22503E4F6C
:10269000D9012D913C912F37310510F02EE730E014
:1026A000622FE80128834081442311F08F5F9D4F02
:1026B000FC01D80180E0861790F490813296119643
:1026C0009C931197AF0142505109EA0199811296EA
:1026D0009C9312978F5F1296EECF9C01D7CF220F5B
:1026E000331F2F5F3F4F2D3F310579F04DEF50E005
:1026F000421B530B70E060E0C801820F931FDF9113
:10270000CF911F910F910C94AC1CDF91CF911F9131
:102710000F9108950C941A1C0C941A1C0F931F937C
:10272000CF93DF93CDB7DEB7C150D1400FB6F89449
:10273000DEBF0FBECDBF8C01FB0140814F3708F0DB
:102740004EE750E0C050DF4F59834883C050D1401E
:102750006F5F7F4FCE0101960E94A31CC050DF4FD8
:10276000E881F981C050D14081E090E08C0F9D1F3D
:10277000E80FF91F108281E091E0FE013196D80147
:1027800001900D920197E1F7CF5FDE4F0FB6F894FD
:10279000DEBF0FBECDBFDF91CF911F910F91089586
:1027A0000F931F93CF93DF93CDB7DEB7C150D140C6
:1027B0000FB6F894DEBF0FBECDBF8C01FB01408188
:1027C0004F3708F04EE750E0C050DF4F5983488341
:1027D000C050D1406F5F7F4FCE0101960E94A31C75
:1027E000C050DF4FE881F981C050D14081E090E0D6
:1027F0008C0F9D1FE80FF91F1082F801EF5FFE4F4D
:1028000081E08083D801AE5FBE4F81E091E0FE01A0
:10281000319601900D920197E1F7CF5FDE4F0FB631
:10282000F894DEBF0FBECDBFDF91CF911F910F9106
:102830000895FF920F931F93CF93DF938B01FC01B9
:10284000EF5FFE4F2081222319F19C012E5F3E4F46
:1028500021503F4FD901CD91DC91CF37D10510F0F8
:10286000CEE7D0E0FC2ED801CC93C11113C04EE7C7
:1028700050E04C1B5D0BCE01019670E060E0800FD4
:10288000911FDF91CF911F910F91FF900C94AC1C81
:102890009C01DECF2081BC01222311F06E5F7E4FB0
:1028A000AE01C80101960E94A31C8EE7F812DFCF8B
:1028B000DF91CF911F910F91FF9008951F920F927A
:1028C0000FB60F9211242F933F938F939F93AF9343
:1028D000BF938091620790916307A0916407B091C4
:1028E00065073091610723E0230F2D3758F50196D6
:1028F000A11DB11D20936107809362079093630728
:10290000A0936407B093650780916607909167076D
:10291000A0916807B09169070196A11DB11D809330
:10292000660790936707A0936807B0936907BF9104
:10293000AF919F918F913F912F910F900FBE0F906C
:102940001F90189526E8230F0296A11DB11DD2CF26
:102950001F920F920FB60F9211240BB60F922F9366
:102960003F934F935F936F937F938F939F93AF9317
:10297000BF93EF93FF938CE698E00E941C03FF91B6
:10298000EF91BF91AF919F918F917F916F915F91E7
:102990004F913F912F910F900BBE0F900FBE0F9054
:1029A0001F9018951F920F920FB60F9211240BB61D
:1029B0000F922F938F939F93EF93FF93E0917C0857
:1029C000F0917D088081E0918208F091830882FD7A
:1029D0001DC09081809185088F5F8F73209186083C
:1029E000821741F0E0918508F0E0E459F74F958FA8
:1029F00080938508FF91EF919F918F912F910F9078
:102A00000BBE0F900FBE0F901F9018958081F2CFD4
:102A1000ECE6F8E01382128288EE93E0A0E0B0E0EA
:102A200084839583A683B78383EE94E09183808328
:102A300085EC90E09587848784EC90E09787868783
:102A400080EC90E0918B808B81EC90E0938B828B7B
:102A500082EC90E0958B848B86EC90E0978B868B54
:102A6000118E128E138E148EE9E0F9E089E095E064
:102A70009183808385EF94E09383828384E190E067
:102A80009583848316821086178211861286138698
:102A900081E0848715861686A8E0B2E02DE039E053
:102AA00019963C932E93189722E139E053963C9364
:102AB0002E9352972BE039E032A321A32CE335E08B
:102AC000308B2787118A9DE2928B91E3938B848BC5
:102AD000158A168A178A108E118E128E138E148EF6
:102AE0008AE299E0968F858F81E090E090A3878FAE
:102AF00025E435E034A323A32AE435E036A325A357
:102B000028E139E030A727A392A781A70895CF93A2
:102B1000DF93CDB7DEB764970FB6F894DEBF0FBE74
:102B2000CDBF789484B5826084BD84B5816084BD56
:102B300085B5826085BD85B5816085BD80916E005B
:102B4000816080936E00109281008091810082608C
:102B500080938100809181008160809381008091C9
:102B600080008160809380008091B10084608093B8
:102B7000B1008091B00081608093B000809191009D
:102B80008260809391008091910081608093910098
:102B9000809190008160809390008091A10082607C
:102BA0008093A1008091A10081608093A100809119
:102BB000A00081608093A0008091210182608093B9
:102BC0002101809121018160809321018091200168
:102BD00081608093200180917A00846080937A00E4
:102BE00080917A00826080937A0080917A0081607F
:102BF00080937A0080917A00806880937A001092A6
:102C0000C100E8E0F2E080859185009749F02081DD
:102C1000213009F4D3C008F4B2C0223009F4EBC06B
:102C20003A9622E0EC31F20771F7809132099091E7
:102C300033099A8B898BA0913009B0913109BC8BF3
:102C4000AB8BBA83A9831A861986312C212C712C5F
:102C5000812C912C1B821C82612C512C412CE989E6
:102C6000FA8929853A85E217F30709F4EAC0A981B0
:102C7000BA8150968D919C915197280E391E1296CB
:102C8000DC9012971396EC9013971496FC9014977F
:102C900015960C91159716961C9116971796BC9140
:102CA000E981FA81C084B1842D2D3E2D4F2D502F06
:102CB000612F7B2F8C2D9B2DA0E00E94721B09F0B1
:102CC00054F4D12C6DE2E62E71E3F72E01E010E012
:102CD000B0E0C12CB12CDD82EF82FB860C871D8712
:102CE000BE87CF86B88A272D382D492D5B816C8110
:102CF000762D852D942DA0E00E94721B59F1AD8098
:102D0000BF80CB84DC84ED84FE840F851889272D59
:102D1000382D492D5B816C81762D852D942D0E9457
:102D2000D41AD22EE32EF42E052F162FB72FF82FFC
:102D3000E92F7A2C8B2C9C2C2C852B833D853C8376
:102D40006E845F8448882D2D3E2DA0E00E94721B6A
:102D500009F06EC089859A8501969A878987A9812D
:102D6000BA815296BA83A9837D808F809B84BC856B
:102D7000BB83ED85EC836E845F84488870CF2181AE
:102D8000222351F0223009F04BCFA281B381AA0F48
:102D9000BB1FAD52BA4F0FC022813381A48173E0B3
:102DA000220F331F7A95E1F7A20FB32FB11DAA0F9F
:102DB000BB1FAD5EB94F8D939C9332CF21812223EF
:102DC00051F0223009F02CCFA281B381AA0FBB1F92
:102DD000AD57B94FF0CF22813381A48143E0220F58
:102DE000331F4A95E1F7A20FB32FB11DAA0FBB1FE6
:102DF000AD53B94FE0CF2181233061F0243089F009
:102E0000223009F00DCFA281B381AA0FBB1FA555B7
:102E1000BA4FD1CFA281B381AA0FBB1FAD57BA4F12
:102E2000CACFA281B381AA0FBB1FA55ABA4FC3CF85
:102E3000DD82EF82FB860C871D87BE87FF87E88BCC
:102E40005ECF272D382D492D5B816C81762D852D08
:102E5000942DA0E00E94721B59F4712C4DE2842E37
:102E600051E3952EF1E0FB831C82612C512C412C07
:102E70007092000280920102909202022B812093B4
:102E800003023C81309304026092050250920602D4
:102E900040920702211480E4380608F0A3C0C10163
:102EA000880F991F009709F4A0C00E947E1B9E8383
:102EB0008D8390934F0780934E07211490E239063B
:102EC00008F096C0C101880F991F880F991F0097BD
:102ED00009F491C00E947E1B98878F8390935507B9
:102EE0008093540730925707209256071A8219820E
:102EF000312C212CA985BA85E981FA81AE17BF074B
:102F000009F489C0AB89BC891296DC90129713969C
:102F1000EC9013971496FC90149715960C911597B6
:102F200016961C9116971796BC91EB89FC89C08464
:102F3000B1842D2D3E2D4F2D502F612F7B2F8C2DA9
:102F40009B2DA0E00E94721B09F044F4272D382D20
:102F5000492D5B816C81762D852D942DA72CB82C65
:102F6000C92CDB80EC80F62C052D142D0E94D61A7E
:102F7000B22EA32E742F652FAB89BC8950964D912C
:102F80005C918A01000F111F7101EE0CFF1C6101A1
:102F9000CC0CDD1CCC0CDD1C90E080E08017910790
:102FA00069F1AB89BC891E96ED91FC91E80FF91F80
:102FB00020813181FC01EE0DFF1DAD81BE81EA0F44
:102FC000FB1F31832083FC01EE0FFF1FEC0DFD1D65
:102FD0002F813885E20FF31FB082A1827283638351
:102FE0000296DCCF8FEF9FEF60CF81E090E05DCF66
:102FF0008FEF9FEF6FCF81E090E06CCF240E351EF6
:1030000089819A8101969A838983AB89BC8952967A
:10301000BC8BAB8B6FCFE0917C08F0917D0882E098
:103020008083E0917808F09179081082E0917A0825
:10303000F0917B0880E1808310928408E091800801
:10304000F091810886E08083E0917E08F0917F080E
:10305000808180618083E0917E08F0917F0880818B
:1030600088608083E0917E08F0917F08808180688D
:103070008083E0917E08F0917F0880818F7D80833E
:103080008CE698E090935A05809359058FEF8093D2
:1030900058058EEE92E0909357058093560581E493
:1030A0009AE0909355058093540581E0809333070F
:1030B00084E38093360784E18093390780933C074B
:1030C00088E380933F0790E29093420780934507FF
:1030D00087E090E00E947E1B90933E0780933D071F
:1030E000009709F451C017E0FC01212F11922A9595
:1030F000E9F788E690E00E947E1B90933507809365
:103100003407009709F440C028E6DC011D922A9597
:10311000E9F780E590E00E947E1B9093380780934A
:103120003707009789F120E5FC0111922A95E9F70C
:1031300080EA90E00E947E1B90933B0780933A07C1
:10314000009711F120EADC011D922A95E9F787E04A
:1031500090E00E947E1B9093440780934307009762
:1031600099F0FC0111921A95E9F780E490E00E9431
:103170007E1B9093410780934007009729F020E43D
:10318000DC011D922A95E9F710E000E0C801880FE4
:10319000991FFC01ED53F94F7F0180819181892BAB
:1031A00049F481E090E00E947E1BD7018D939C93AF
:1031B000FC0110820F5F1F4F0833110539F7009192
:1031C000340710913507E3E8F6E090E080E02191C4
:1031D0003191232B39F4DF0112979801280F391F01
:1031E0002D933C9302968034910589F7D12CC12C04
:1031F000C601880F991F9C012D5E394F7901D901B5
:103200008D919C91892B49F481E090E00E947E1B76
:10321000F70191838083DC011C92BFEFCB1ADB0A9C
:10322000E8E3CE16D10421F7209140073091410701
:10323000E3EDF5E090E080E041915191452B39F4C8
:10324000DF011297A901480F591F4D935C93029615
:103250008034910589F7EBEAF5E090E080E0005CCE
:103260001F4F21913191232B39F4DF0112979801DF
:10327000280F391F2D933C9302968832910589F7C8
:103280004091370750913807E3E8F5E090E080E09F
:1032900021913191232B59F4DF0112979C01220FC8
:1032A000331F220F331F240F351F2D933C9301969C
:1032B0008431910569F740913A0750913B07EBE55E
:1032C000F5E090E080E021913191232B61F4DF0162
:1032D00012979C0163E0220F331F6A95E1F7240FD8
:1032E000351F2D933C9301968431910561F748EE8B
:1032F000A42E53E0B52EC12CD12CE12CF12C00E0F2
:1033000010E0272D382D492D5B816C81762D852D80
:10331000942D0E94D61A2093590730935A07409350
:103320005B0750935C070E947E0260935D07709379
:103330005E0780935F0790936007992493940E949F
:103340007E0200915D0710915E0720915F0730912A
:103350006007601B710B820B930B00915907109152
:103360005A0720915B0730915C076017710782074D
:10337000930708F4C7C00E94A8061A821982809198
:1033800056079091570729813A8128173907D8F5B0
:10339000E0915407F0915507C901880F991F880FD4
:1033A000991FE80FF91F2081318142815381211536
:1033B00031054105510571F0609150077091510739
:1033C00080915207909153070E949B1A672B682B9C
:1033D000692B99F4E0914E07F0914F0789819A810A
:1033E000880F991FE80FF91F80819181DC01ED9111
:1033F000FC910480F581E02D1995E981FA813196DF
:10340000FA83E983BCCF8091500790915107A09136
:103410005207B09153070196A11DB11D809350072B
:1034200090935107A0935207B093530720914607FA
:1034300030914707409148075091490760914A07EA
:1034400070914B0780914C0790914D07A09000021E
:10345000B0900102C0900202D0900302E0900402FA
:10346000F090050200910602109107020E94691B6C
:1034700020934607309347074093480750934907E6
:1034800060934A0770934B0780934C0790934D07C6
:103490000E949A0880915807811118C0909258078D
:1034A0000E947E020091590710915A0720915B07F4
:1034B00030915C07601B710B820B930B60935D076F
:1034C00070935E0780935F079093600780915D071C
:1034D00090915E07A0915F07B091600740915907F6
:1034E00050915A0760915B0770915C07840F951F9C
:1034F000A61FB71F80935D0790935E07A0935F0799
:10350000B09360070E947E0200915D0710915E07F4
:1035100020915F0730916007601B710B820B930B4A
:10352000603177428105910510F00E949A088895D4
:103530000E94AB0304CFA1E21A2EAA1BBB1BFD0104
:103540000DC0AA1FBB1FEE1FFF1FA217B307E40782
:10355000F50720F0A21BB30BE40BF50B661F771FDA
:10356000881F991F1A9469F76095709580959095BA
:103570009B01AC01BD01CF010895EE0FFF1F881F15
:103580008BBF0790F691E02D1994A29FB001B39FD5
:10359000C001A39F700D811D1124911DB29F700D5C
:1035A000811D1124911D0895689401C0E8948F92A3
:1035B0009F92CF93DF930E94E21ADF91CF919F9069
:1035C0008F90089588249924F401E401B0E49F9336
:1035D000AA279A158B049C04ED05FE05CF05D0079C
:1035E000A10798F4AD2FDC2FCF2FFE2FE92D982CBB
:1035F000892E982F872F762F652F542F432F322F08
:103600002227B85031F7BF9127C01B2EBF91BB278F
:10361000220F331F441F551F661F771F881F991FD6
:10362000881C991CEE1FFF1FCC1FDD1FAA1FBB1F8C
:103630008A149B04EC05FD05CE05DF05A007B10744
:1036400048F08A189B08EC09FD09CE09DF09A00B98
:10365000B10B21601A94E1F62EF49401AF01BE0182
:10366000CD01000C0895002E083090F0982F872F80
:10367000762F652F542F432F322F22270850F4CF57
:10368000220F331F441F551F661F771F881F991F66
:103690000A95B2F7002D089597FD1094002E08307A
:1036A00098F00850232F342F452F562F672F782F4F
:1036B000892F912DF4CF15949795879577956795D8
:1036C00057954795379527950A95AAF71124002D08
:1036D00008952A0D3B1D4C1D5D1D6E1D7F1D801F15
:1036E000911F08950024A7FD00942A173005400576
:1036F0005005600570058005900508950F931F9390
:10370000CF93DF938230910510F482E090E0E09156
:103710003609F091370930E020E0B0E0A0E03097C2
:1037200099F42115310509F44AC0281B390B2430BE
:103730003105D8F58A819B816115710589F1FB01FD
:1037400093838283FE0111C04081518102811381E4
:1037500048175907E0F04817590799F4109761F096
:1037600012960C93129713961C933296CF01DF9109
:10377000CF911F910F910895009336091093370947
:10378000F4CF2115310551F04217530738F0A90144
:10379000DB019A01BD01DF01F801C1CFEF01F9CFD3
:1037A0009093370980933609CDCFFE01E20FF31FC6
:1037B000819391932250310939832883D7CF209167
:1037C000340930913509232B41F420911E023091A8
:1037D0001F02309335092093340920911C02309147
:1037E0001D022115310541F42DB73EB7409120024D
:1037F00050912102241B350BE0913409F0913509D9
:10380000E217F307A0F42E1B3F0B2817390778F0B7
:10381000AC014E5F5F4F2417350748F04E0F5F1F16
:103820005093350940933409819391939FCFF0E0F1
:10383000E0E09CCFCF93DF930097E9F0FC01329753
:1038400013821282A0913609B0913709ED0130E060
:1038500020E01097A1F420813181820F931F2091E5
:103860003409309135092817390709F061C0F09300
:103870003509E0933409DF91CF910895EA01CE171D
:10388000DF07E8F54A815B819E0141155105B1F7DB
:10389000E901FB83EA8349915991C40FD51FEC17C5
:1038A000FD0761F4808191810296840F951FE901E3
:1038B00099838883828193819B838A83F0E0E0E00F
:1038C00012968D919C9113970097B9F52D913C918B
:1038D0001197CD010296820F931F209134093091E8
:1038E00035092817390739F6309751F510923709FD
:1038F00010923609B0933509A0933409BCCFD38315
:10390000C28340815181840F951FC817D90761F484
:103910004E5F5F4F88819981480F591F51834083C3
:103920008A819B81938382832115310509F0B0CF71
:10393000F0933709E09336099ECFFD01DC01C0CF3B
:1039400013821282D7CFFB01DC0102C001900D92DD
:1039500041505040D8F70895DC0101C06D934150AB
:0A3960005040E0F70895F894FFCFFF
:10396A00002D3101000000000202000000000000EA
:10397A0000000100000000000000000000003809FB
:10398A00800000C0C101C30302C2C60607C705C53D
:10399A00C404CC0C0DCD0FCFCE0E0ACACB0BC9096D
:1039AA0008C8D81819D91BDBDA1A1EDEDF1FDD1D7D
:1039BA001CDC14D4D515D71716D6D21213D311D1AD
:1039CA00D010F03031F133F3F23236F6F737F535FD
:1039DA0034F43CFCFD3DFF3F3EFEFA3A3BFB39F92D
:1039EA00F83828E8E929EB2B2AEAEE2E2FEF2DEDFD
:1039FA00EC2CE42425E527E7E62622E2E323E1216D
:103A0A0020E0A06061A163A3A26266A6A767A5657C
:103A1A0064A46CACAD6DAF6F6EAEAA6A6BAB69A9EC
:103A2A00A86878B8B979BB7B7ABABE7E7FBF7DBDFC
:103A3A00BC7CB47475B577B7B67672B2B373B1712C
:103A4A0070B05090915193535292965657975595FC
:103A5A0094549C5C5D9D5F9F9E5E5A9A9B5B9959AC
:103A6A005898884849894B8B8A4A4E8E8F4F8D4D7C
:103A7A004C8C4484854587474686824243834181EC
:103A8A00804000C1814001C0804101C0804100C125
:103A9A00814001C0804100C1814000C1814001C014
:103AAA00804101C0804100C1814000C1814001C004
:103ABA00804100C1814001C0804101C0804100C1F4
:103ACA00814001C0804100C1814000C1814001C0E4
:103ADA00804100C1814001C0804101C0804100C1D4
:103AEA00814000C1814001C0804101C0804100C1C4
:103AFA00814001C0804100C1814000C1814001C0B4
:103B0A00804101C0804100C1814000C1814001C0A3
:103B1A00804100C1814001C0804101C0804100C193
:103B2A00814000C1814001C0804101C0804100C183
:103B3A00814001C0804100C1814000C1814001C073
:103B4A00804100C1814001C0804101C0804100C163
:103B5A00814001C0804100C1814000C1814001C053
:103B6A00804101C0804100C1814000C1814001C043
:103B7A00804100C1814001C0804101C0804100C133
:103B8A008140280872069E061B080196069306893C
:103B9A00068006017806750668065F060154062B3C
:103BAA000647063C060231062E061E06130602FECC
:103BBA00054A04EB05DC0504C705C405B105A205E1
:103BCA00047805F9044C05290508FF04FC04CD0412
:103BDA00AA0408950492047F0465040450044D0461
:103BEA0037041D04047806750668065F0601310667
:103BFA002E061E06130602C705C405B105A2050452
:103C0A00FF04FC04CD04AA04087805F9044C05292C
:103C1A0005087805F9044C052905087805F9044CC6
:103C2A00052905087805F9044C05290508D0131655
:103C3A000819148E137F5A0756073913B907FD005E
:103C4A000000003E03A802D5028B030603E402F833
:103C5A000200000000DC038A13DD030504020401EC
:103C6A00040104F6030000000008048C130904A6EA
:103C7A0002A302434F4E4649473000373561633548
:103C8A0062343966633837356164303264363635C2
:103C9A006166373163316131346165004D41494EA6
:0E3CAA005441534B005245533000504C4300E0
:00000001FF
